:200000000C9462000C948A000C948A000C948A000C948A000C948A000C948A000C948A00B8
:200020000C948A000C948A000C948A000C948A000C948A000C948A000C948A000C948A0070
:200040000C94480A0C948A000C94B80A0C94920A0C948A000C948A000C948A000C948A003E
:200060000C94EA0A0C948A0000000000240027002A0000000000250028002B0000000000D5
:20008000230026002900040404040404040402020202020203030303030301020408102071
:2000A0004080010204081020010204081020000000080002010000030407000000000000E9
:2000C0000000530C11241FBECFEFD8E0DEBFCDBF26E0AAE8B2E001C01D92AB30B207E1F70A
:2000E00012E0A0E0B1E0E8EEFAE202C005900D92AA38B107D9F710E0C2E6D0E004C0219727
:20010000FE010E94D910C136D107C9F70E948C0C0C9472150C9400008091FE029091FD0294
:20012000891B990B0895833081F028F4813099F08230A9F008958730A9F08830C9F0843003
:20014000B1F4809180008F7D03C0809180008F7780938000089584B58F7784BD089584B57D
:200160008F7DFBCF8091B0008F778093B00008958091B0008F7DF9CFCF93DF93282F30E0B2
:20018000F901E255FF4F8491F901E656FF4FD491F901EA57FF4FC491CC23A1F081110E9450
:2001A0009300EC2FF0E0EE0FFF1FE458FF4FA591B491EC91ED2381E090E009F480E0DF9176
:2001C000CF91089580E090E0FACF1F93CF93DF93282F30E0F901E255FF4F8491F901E656D2
:2001E000FF4FD491F901EA57FF4FC491CC23A9F0162F81110E949300EC2FF0E0EE0FFF1FD4
:20020000EE58FF4FA591B4918FB7F894EC91111108C0D095DE23DC938FBFDF91CF911F91F3
:200220000895DE2BF8CFCF93DF9390E0FC01E656FF4F24918A579F4FFC0184918823D1F084
:2002400090E0880F991FFC01E859FF4FA591B491FC01EE58FF4FC591D49161110EC09FB7F6
:20026000F8948C91E22FE0958E238C932881E223E8839FBFDF91CF9108958FB7F894EC914C
:20028000E22BEC938FBFF6CF3FB7F8948091F9029091FA02A091FB02B091FC0226B5A89B89
:2002A00005C02F3F19F00196A11DB11D3FBFBA2FA92F982F8827BC01CD01620F711D811D82
:2002C000911D42E0660F771F881F991F4A95D1F708958F929F92AF92BF92CF92DF92EF9269
:2002E000FF924B015C010E9444016B017C010E9444016C197D098E099F09683E73408105E4
:200300009105A8F321E0821A9108A108B10888EEC80E83E0D81EE11CF11C81149104A10496
:20032000B10429F7FF90EF90DF90CF90BF90AF909F908F9008958C01D0E0C0E061E08BE00A
:200340000E94E50064E670E080E090E00E94690160E08BE00E94E50064E670E080E090E004
:200360000E94690121960C171D0741F760ED77E080E090E00E946901DFCF08950895AF9292
:20038000BF92CF92DF92EF92FF920F931F93CF93DF936C017B018B01040F151FEB015E01F9
:2003A000AE18BF08C017D10759F06991D601ED91FC910190F081E02DC6010995892B79F744
:2003C000C501DF91CF911F910F91FF90EF90DF90CF90BF90AF900895FC01538D448D252F2E
:2003E00030E0842F90E0821B930B541710F0CF96089501970895FC01918D828D981761F0C3
:20040000A28DAE0FBF2FB11D5D968C91928D9F5F9F73928F90E008958FEF9FEF0895FC0121
:20042000918D828D981731F0828DE80FF11D858D90E008958FEF9FEF0895FC01918D228D19
:20044000892F90E0805C9F4F821B91098F73992708958EE595E00E941D0221E0892B09F4B9
:2004600020E0822F089580E090E0892B29F00E94290281110C9400000895FC01A48DA80F10
:20048000B92FB11DA35ABF4F2C91848D90E001968F739927848FA689B7892C93A089B18960
:2004A0008C91837080648C93938D848D981306C00288F389E02D80818F7D80830895EF9246
:2004C000FF920F931F93CF93DF93EC0181E0888F9B8D8C8D98131AC0E889F989808185FFC0
:2004E00015C09FB7F894EE89FF896083E889F98980818370806480839FBF81E090E0DF91F6
:20050000CF911F910F91FF90EF900895F62E0B8D10E00F5F1F4F0F731127E02E8C8D8E1178
:200520000CC00FB607FCFACFE889F989808185FFF5CFCE010E943D02F1CFEB8DEC0FFD2F13
:20054000F11DE35AFF4FF0829FB7F8940B8FEA89FB8980818062CFCFCF93DF93EC01888DC6
:200560008823B9F0AA89BB89E889F9898C9185FD03C0808186FD0DC00FB607FCF7CF8C915F
:2005800085FFF2CF808185FFEDCFCE010E943D02E9CFDF91CF910895DC01ED91FC91028492
:2005A000F385E02D09950895DB01ED91FC9111970190F081E02D682FCD0109942091CB025D
:2005C000260F3327331F21323105ECF420915805FC0190E080E0243069F082E00895A09119
:2005E000CB022191AC0145555D4FA40FB52FB11D2C930196861798F38091CB02680F60935E
:20060000CB0280E0089581E008951092580581E0809337051092320561E082E10E94E5005F
:2006200061E083E10E94E500E9EBF0E080818E7F808380818D7F808388E48093B80085E429
:200640008093BC000895CF93DF9391E09093AA028823B9F0C091B800D091BA008091BC00D5
:200660008A7B8093BC0060E082E10E94E50060E083E10E94E5000E940503D093BA00C09337
:20068000B800DF91CF910895CF92DF92EF92FF920F931F93CF93DF93D82FC62F613208F0A2
:2006A00098C00E9444016B017C018091580581116BC081E080935805809337059FEF909316
:2006C0003605109235059C0F909334058093330580913305DD0FD82BD09333058091320596
:2006E000813009F078C0109232050E9444016B017C01809133058093BB0080915A059091C7
:200700005B05A0915C05B0915D05892B8A2B8B2BA1F00E94440100915A0510915B0520910B
:200720005C0530915D056C197D098E099F09061717072807390708F448C08091BC0083FDF0
:20074000D8CF85EC8093BC000E9444016B017C0180915805813009F440C0809135058C17D8
:2007600010F4C0913505E2E1F5E0A8E3B5E080E08C1355C08C2FDF91CF911F910F91FF90B4
:20078000EF90DF90CF90089580915A0590915B05A0915C05B0915D05892B8A2B8B2B09F42D
:2007A00084CF0E94440100915A0510915B0520915C0530915D056C197D098E099F09061772
:2007C00017072807390708F070CF809159050E942303C0E0CFCF85EEB5CF80915A05909158
:2007E0005B05A0915C05B0915D05892B8A2B8B2B09F4AECF0E94440100915A0510915B05F3
:2008000020915C0530915D056C197D098E099F09061717072807390708F09ACFD6CF919187
:200820009D938F5FA5CF0895E091FD028091FE02E81730F4F0E0E85CFA4F808190E008957A
:200840008FEF9FEF08959091FD028091FE022FEF3FEF981748F4E92FF0E0E85CFA4F208171
:2008600030E09F5F9093FD02C9010895CF92DF92EF92FF920F931F93CF93DF937C01CB018C
:200880008A0120910205222389F0EB016B01C40ED51ECC15DD0569F06991D701ED91FC9141
:2008A0000190F081E02DC7010995F3CF642F0E94DE02C801DF91CF911F910F91FF90EF90F5
:2008C000DF90CF900895CF93DF931F92CDB7DEB76983209102052223F9F02091FF04203237
:2008E00058F021E030E0FC013383228390E080E00F90DF91CF91089580910005E82FF0E06E
:20090000E657FD4F998190838F5F809300058093FF0481E090E0ECCF61E0CE0101960E9430
:20092000DE02F7CF682F8BEF95E00C946304CF92DF92EF92FF920F931F93CF93DF93D09117
:20094000FF0481E0D13208F09CC0C09101050E9444016B017C018091580581116CC082E027
:200960008093580581E0809337058FEF8093360510923505D0933405AAE8B2E0E2E1F5E057
:2009800080E0D8138DC01092330580913305CC0FC82BC093330580913205813009F084C00D
:2009A000109232050E9444016B017C01809133058093BB0080915A0590915B05A0915C05F4
:2009C000B0915D05892B8A2B8B2BA1F00E94440100915A0510915B0520915C0530915D05B7
:2009E0006C197D098E099F09061717072807390708F442C08091BC0083FDD8CF85EC80938D
:200A0000BC000E9444016B017C0180915805823009F44CC0809136058F3F09F469C08091D0
:200A20003605803209F466C080913605803309F463C084E026C080915A0590915B05A0911B
:200A40005C05B0915D05892B8A2B8B2B09F483CF0E94440100915A0510915B0520915C053A
:200A600030915D056C197D098E099F09061717072807390708F06FCF809159050E942303F2
:200A800085E0109200051092FF0410920205DF91CF911F910F91FF90EF90DF90CF90089563
:200AA0009D9191938F5F6DCF85EEA9CF80915A0590915B05A0915C05B0915D05892B8A2B40
:200AC0008B2B09F4A2CF0E94440100915A0510915B0520915C0530915D056C197D098E0943
:200AE0009F09061717072807390708F08ECFC4CF80E0C7CF82E0C5CF83E0C3CF0F931F9387
:200B0000CF93DF93EC018B0169817A818881806291E09093020580930105109200051092BB
:200B2000FF0482E10E94D40269817A81802F0E94D40269817A81812F0E94D40289819A8199
:200B4000DF91CF911F910F910C9497041F93CF93DF93EC01862F142F69817A8198819062DF
:200B600021E02093020590930105109200051092FF040E94D40269817A81812F0E94D402C0
:200B800089819A81DF91CF911F910C94970490E080E00895CF938EE595E00E941D021816CF
:200BA00019063CF061E070E080E090E00E946901F2CF8EE595E00E94FB01C82F80E091E06E
:200BC000CA3511F18EE595E00E941D02181619063CF061E070E080E090E00E946901F2CFC4
:200BE0008EE595E00E94FB0190ED980F9A3010F099EC980F80ED8C0F8A3010F089EC8C0F83
:200C00008295807F890F90E0CF910895CF93C82F61E00E94E50064E670E080E090E00E948C
:200C2000690160E08C2FCF910C94E500FC0101900020E9F73197AF01481B590BBC018EE56D
:200C400095E00C94BF018EE291E00C941606CF93DF930E941606EC010E9423068C0F9D1F81
:200C6000DF91CF9108950C941606CF92DF92EF92FF920F931F93CF93DF93CDB7DEB7A197EE
:200C80000FB6F894DEBF0FBECDBF9C01990F440B550B19A28E010F5D1F4F8AE0C82ED12C98
:200CA000E12CF12CCA01B901A70196010E94B710605DF80162938F0121153105410551059A
:200CC00089F73097B9F0CF010E9416068C010E942306800F911FA1960FB6F894DEBF0FBE0D
:200CE000CDBFDF91CF911F910F91FF90EF90DF90CF90089510E000E0EACF862F642F0E945C
:200D000044031092FD028093FE0208951F93CF93DF93C3E0D5E069817A818881806291E01C
:200D20009093020580930105109200051092FF0482E10E94D40289819A810E9497046881FE
:200D4000606270E042E050E089819A810E947D0689819A810E94CC02182F89819A810E9442
:200D6000CC02982F812FDF91CF911F910895CF93DF93EC01962F69817A818881806221E0BA
:200D80002093020580930105109200051092FF0482E1911183E10E94D40289819A810E948C
:200DA00097046881606270E041E050E089819A810E947D0689819A81DF91CF910C94CC029F
:200DC000CF93DF93EC01862F69817A819881906221E0209302059093010510920005109280
:200DE000FF040E94D40289819A810E9497046881606270E041E050E089819A810E947D0680
:200E000089819A81DF91CF910C94CC020F931F93CF93DF93EC01162F062F077065E11830DB
:200E200008F464E1CE010E94E00641E050E060E070E004C0440F551F661F771F0A95D2F72B
:200E40004095482363E1183008F462E1CE01DF91CF911F910F910C94A605FF920F931F9368
:200E6000CF93DF93EC01162FF42E683008F4022F602FCE010E94E006177041E050E060E087
:200E800070E004C0440F551F661F771F1A95D2F7FF2051F0482B602FCE01DF91CF911F9133
:200EA0000F91FF900C94A60540954823F4CF0F93CF9381E090E09093030180930201C0E003
:200EC00001E020E040E06C2F83E095E00E942D070DE02CE040E06C2F83E095E00E942D0766
:200EE0006C2F83E095E00E940607CF5FC03141F7CF910F910895CF92DF92EF92FF920F9356
:200F0000CF931092010110920001F12CE12CC7018A5F9A4F6C01C0E001E020E041E06C2FBA
:200F2000C6010E942D070DE02CE041E06C2FC6010E942D07CF5FC03179F793E0E90EF11CBC
:200F40008CE0E816F10419F7CF910F91FF90EF90DF90CF900895CF92DF92EF92FF920F9323
:200F6000CF9381E090E09093010180930001F12CE12CC7018A5F9A4F6C01C0E001E020E053
:200F800040E06C2FC6010E942D070DE02CE040E06C2FC6010E942D076C2F86E095E00E9490
:200FA0000607CF5FC03151F793E0E90EF11C8CE0E816F104F1F6CF910F91FF90EF90DF9083
:200FC000CF9008958F929F92AF92BF92CF92DF92EF92FF920F931F93CF93DF93092E000CE2
:200FE000AA0BBB0B6C017D0189E0CC0CDD1CEE1CFF1C8A95D1F7CFEFD2E001E04601570155
:2010000016E5C114D10481E0E806F10420F081E0A81AB10817E5009302051093010510921A
:2010200000051092FF04892D992D990F990B0E949204C40199270E9492048BEF95E00E94B8
:20104000970461E0812F0E9444031092FD028093FE028823D9F08BEF95E00E94230489931F
:201060008FEFC81AD80AE80AF80A84E0CF3FD80729F6DF91CF911F910F91FF90EF90DF902D
:20108000CF90BF90AF909F908F9008958FEFE7CFCF93DF9300D000D000D0CDB7DEB71A824B
:2010A00019821C821B821E821D8261E371E0CE0101960E94090C84E090E00E949B012F9296
:2010C0003F924F925F926F927F928F929F92AF92BF92CF92DF92EF92FF920F931F93CF93DD
:2010E000DF93CDB7DEB764970FB6F894DEBF0FBECDBF1C0183E691E00E943306C1010E94ED
:20110000350688E691E00E94330610E000E0E1E7EE2EE1E0FE2ECE0101962C011F930F9352
:20112000FF92EF925F924F920E94D112C2010E9433060F5F1F4F0F900F900F900F900F90B1
:201140000F900830110551F70E942306310166E0660C771C6A95E1F77FEF872E72E0972E01
:20116000B12CA12CB501660D771D8091020190910301019711F00E94480883E095E00E94CA
:201180007E05740110E000E0F801EA5FFA4F6F0160E0CF010E94B706F701808361E0C6011A
:2011A0000E94B706F7018183F2E0EF0EF11C0D5F1F4F0C30110541F728E0820E911C8FEFD1
:2011C000A81AB80A90E4A916B10461F64FEF642E42E0742E730110E000E051E7A52E51E038
:2011E000B52E1F930F93E7E7F1E0FF93EF935F924F920E94D112C2010E9433060F900F90D2
:201200000F900F900F900F90470138E0C32ED12CF40181914F011F928F93BF92AF925F9257
:201220004F920E94D112C2010E943306F1E0CF1AD1080F900F900F900F900F900F9041F725
:201240000E9423060F5F1F4F28E0E20EF11C0034110539F60E942306C1010E94E20710E061
:2012600000E097E7C92E91E0D92E21E7A22E21E0B22E1F930F93DF92CF925F924F920E944E
:20128000D112C2010E9433060F900F900F900F900F900F90430188E0E82EF12CF40181912D
:2012A0004F011F928F93BF92AF925F924F920E94D112C2010E943306F1E0EF1AF1080F9012
:2012C0000F900F900F900F900F9041F70E9423060F5F1F4F28E0620E711C0034110549F686
:2012E0000E94230664960FB6F894DEBF0FBECDBFDF91CF911F910F91FF90EF90DF90CF90E6
:20130000BF90AF909F908F907F906F905F904F903F902F9008958F929F92AF92BF92CF92A5
:20132000DF92EF92FF920F931F93CF93DF9300D000D000D0CDB7DEB74C0186E0880C991C7D
:201340008A95E1F760E08AE00E94E5009FEFA92E92E0B92E10E000E0B801680D791D809102
:20136000020190910301019711F00E94480883E095E00E947E0580910001909101010197F0
:2013800081F01A8219821C821B821E821D8262E871E0CE0101960E94090C83E090E00E94FE
:2013A0009B016501F12CE12CF60180816181F2E0CF0ED11C762F682FC7018A5F9A4F0E9413
:2013C0007E0583E0E80EF11C9CE0E916F10461F7E8E0AE0EB11C60E088E00E94E50061E09B
:2013E00088E00E94E5000F5F1F4F0034110509F0B3CF61E08AE00E94E50026960FB6F8941E
:20140000DEBF0FBECDBFDF91CF911F910F91FF90EF90DF90CF90BF90AF909F908F90089561
:2014200085ED8093BC0080915A0590915B05A0915C05B0915D050796A11DB11D23E0B695CE
:20144000A795979587952A95D1F72091BC0024FD03C010925805089540915A0550915B0523
:2014600060915C0570915D05452B462B472B69F30097A105B10541F02AE22A95F1F700C071
:201480000197A109B109E1CF809159050C9423031F920F920FB60F9211242F933F938F93C8
:2014A0009F93AF93BF938091F5029091F602A091F702B091F8023091F40223E0230F2D3790
:2014C00058F50196A11DB11D2093F4028093F5029093F602A093F702B093F8028091F90259
:2014E0009091FA02A091FB02B091FC020196A11DB11D8093F9029093FA02A093FB02B0939F
:20150000FC02BF91AF919F918F913F912F910F900FBE0F901F90189526E8230F0296A11D60
:20152000B11DD2CF1F920F920FB60F9211242F933F934F935F936F937F938F939F93AF933D
:20154000BF93EF93FF938EE595E00E943D02FF91EF91BF91AF919F918F917F916F915F916C
:201560004F913F912F910F900FBE0F901F9018951F920F920FB60F9211242F938F939F9391
:20158000EF93FF93E0916E05F0916F058081E0917405F091750582FD1BC090818091770580
:2015A0008F5F8F7320917805821741F0E0917705F0E0E25AFA4F958F80937705FF91EF913E
:2015C0009F918F912F910F900FBE0F901F9018958081F4CF1F920F920FB60F9211242F9321
:2015E0003F934F935F936F937F938F939F93AF93BF93EF93FF938091B900887F803609F4B1
:201600004AC0F0F5883209F4A7C018F5803109F49BC0B8F4882309F4F9C0883009F494C091
:20162000FF91EF91BF91AF919F918F917F916F915F914F913F912F910F900FBE0F901F9090
:201640001895883109F488C0803251F78093360514C0803409F49DC040F48033B9F3883367
:20166000F9F68093360585ECB0C0803509F485C0883509F496C0883499F60E94100AD0CF9F
:20168000883909F48CC038F5883729F050F4883611F0803729F683E0809358051092ED02FE
:2016A00057C0883809F47BC0803919F0803809F0B7CF8091ED02803208F071C0E091ED02E7
:2016C00081E08E0F8093ED028091BB00F0E0E353FD4F80833DC0803B39F0E0F4803A09F47D
:2016E00079C0883A09F09CCF84E0809358051092CC021092CB02E091EE02F091EF02099567
:201700008091CB0281110FC081E08093CB021092AB0209C0803C09F4A6CF883C09F4A3CFD0
:20172000883B09F07DCFE091CC0281E08E0F8093CC02F0E0E555FD4F80818093BB0090913D
:20174000CC028091CB0229C0809133058093BB0085EC8093BC0064CF9091350580913405C5
:20176000981758F5E091350581E08E0F80933505F0E0EE5EFA4F8081E9CFE091350581E04D
:201780008E0F809335058091BB00F0E0EE5EFA4F808390913505809134059817C8F285E8B0
:2017A000D8CFE091350581E08E0F809335058091BB00F0E0EE5EFA4F808380913705811179
:2017C0005CCF81E08093320584EA8093BC001092580526CF85EC8093BC00109258058091B2
:2017E000ED02803230F4E091ED02F0E0E353FD4F10826091ED0270E0E091F002F091F102D9
:201800008DEC92E009951092ED020ACF1092360534CFEF92FF920F931F93CF93DF93EC01CE
:201820007B01FB0101900020E9F731978F01061B170B88819981009729F02A813B81201793
:20184000310788F4B8016F5F7F4F0E9404120097B9F0998388831B830A832C813D81232B7C
:2018600011F4FC0110821D830C83B70188819981DF91CF911F910F91FF90EF900C94CA1220
:2018800088819981009711F00E947B11198218821D821C821B821A82DF91CF911F910F9194
:2018A000FF90EF900895EEE5F5E01382128288EE93E0A0E0B0E084839583A683B7832EE023
:2018C00031E03183208325EC30E03587248724EC30E03787268720EC30E0318B208B21ECFD
:2018E00030E0338B228B22EC30E0358B248B26EC30E0378B268B118E128E138E148EEBEFEF
:20190000F5E01382128284839583A683B78380E291E0918380830895CF93DF93CDB7DEB7D3
:20192000C651D2400FB6F894DEBF0FBECDBF789484B5826084BD84B5816084BD85B5826058
:2019400085BD85B5816085BD80916E00816080936E001092810080918100826080938100DC
:2019600080918100816080938100809180008160809380008091B10084608093B1008091E0
:20198000B00081608093B00080917A00846080937A0080917A00826080937A0080917A0072
:2019A000816080937A0080917A00806880937A001092C100E0916E05F0916F0582E0808318
:2019C000E0916A05F0916B051082E0916C05F0916D0580E1808310927605E0917205F091E5
:2019E000730586E08083E0917005F0917105808180618083E0917005F0917105808188607E
:201A00008083E0917005F0917105808180688083E0917005F091710580818F7D808310926B
:201A2000FD021092FE02109200051092FF040E9405038DEB91E09093EF028093EE028EEB96
:201A400091E09093F1028093F00260E08EE00E9413018EE00E94BC009093F3028093F202AB
:201A6000019721F481EB91E00E94270603E015E0F12C4BEF842E45E0942E5DEBA52E51E0F9
:201A8000B52E6EEBC62E61E0D62ED801FC9212969C928E9211971092FD021092FE021092E7
:201AA00000051092FF040E940503B092EF02A092EE02D092F102C092F0024FEF60E0C8019D
:201AC0000E94A6054FEF61E0C8010E94A60540E064E0C8010E94A60540E065E0C8010E94DA
:201AE000A60540E06CE0C8010E94A60540E06DE0C8010E94A605F3940D5F1F4FB5E0FB1233
:201B0000C4CF61E08BE00E94130161E08CE00E94130161E08DE00E94130161E087E00E94BF
:201B2000130161E089E00E94130161E088E00E94130161E08AE00E94130161E089E00E9425
:201B4000E50061E088E00E94E50061E08AE00E94E50060E087E00E94E50060E08EE00E94C0
:201B6000130160E080E10E9413018BE090E00E9406068CE090E00E9406068DE090E00E9468
:201B800006068091F2029091F302019721F48DEB91E00E9427068091F2029091F302019706
:201BA00009F0E4C18BEC91E00E94270688ED91E00E9427060E9457070E94AB07F12C10E0BA
:201BC00000E0EE24E3946F2D8DE00E94E500FE24EFEFF2E080E00083818322E030E0DF0161
:201BE000A20FB31F1C922F5F3F4F28303105B9F738968F5F803479F7C8010E948B090F5F0D
:201C00001F4F0115E1E01E07F1F685EE91E00E9427068CEE91E00E94270661E08DE00E94B6
:201C2000E5000E9457070E94AB0710E000E0EE24E3948AEF91E00E943306C8010E943506A7
:201C40006F2D8DE00E94E500FE24C8010E94E207C8010E948B090F5F1F4F0115F1E01F0796
:201C600041F785EE91E00E9427060E947B070E94570760E089E00E94E50060E08AE00E94D9
:201C8000E50090E080E00E945F0881E090E00E945F0887E090E00E945F088CE790E00E9447
:201CA0005F088FEF90E00E945F08109203011092020110E001E020E041E0612F83E095E021
:201CC0000E942D070DE02CE041E0612F83E095E00E942D071F5F103169F70E947B0760E053
:201CE00089E00E94E50060E08AE00E94E50060E08DE00E94E50061E08CE00E94E50061E01A
:201D000087E00E94E5008FE092E00E9427060FEF1FEFCC24CA94DC2C712C612CCE01019633
:201D20007C0168EE73E080E090E00E9469010E948606CF5EDD4F8883C151D240CA5EDD4F97
:201D40009883C651D2400E9486062C01DC01AF73BB27CE5EDD4FB983A883C251D2401C0102
:201D600026E0359427942A95E1F73324AC15BD0521F42016310609F4E4C08E01075F1D4FE4
:201D80005801D12CC12CF601EA5FFA4F4F0160E0CF010E94B706D5018C9361E0C4010E941B
:201DA000B706F5018183F2E0AF0EB11C23E0C20ED11C8CE0C816D10431F7D3011196CC5E64
:201DC000DD4FB983A883C451D240CD5EDD4FB881C351D240BF93CE5EDD4FE881C251D2405B
:201DE000EF933F922F927F926F92FFE15F225F924F92CA5EDD4F2881C651D2402F93CF5E75
:201E0000DD4F8881C151D2408F93ABE2B2E0BF93AF93FF92EF920E94D112C7010E9433065A
:201E20006801F8E0CF0ED11C0FB6F894DEBF0FBECDBF4801D4018D914D011F928F93E1E62C
:201E4000F2E0FF93EF93FF92EF920E94D112C7010E9433060F900F900F900F900F900F90A8
:201E6000C814D90439F70E942306CE5EDD4F88819981C251D240892B09F458C0DE01AF5F58
:201E8000BD4F2D013801D12CC12CB1E0CF5EDD4FB883C151D240B12CA12CF3019081D2011A
:201EA0008C918927CF5EDD4FB881C151D2408B23D9F09B2381E009F480E01F928F93C50113
:201EC0008C0D9D1D9F938F93E9E6F2E0FF93EF93FF92EF920E94D112C7010E9433060FB6A7
:201EE000F894DEBF0FBECDBFCF5EDD4F9881C151D240990FCF5EDD4F9883C151D240AFEFEC
:201F0000AA1ABA0AB8E0AB16B10439F6EFEF6E1A7E0AFFEF4F1A5F0A28E0C20ED11C80E425
:201F2000C816D10409F0B1CF0E942306FE01EF5FFD4FD8018D918D018193A815B905C9F73D
:201F400007C01801CC5EDD4F79826882C451D2408101CE5EDD4FC880D980C251D240CC5E75
:201F6000DD4F68807980C451D240DBCE61E08DE00E94E50080E10E94BC000197D9F3312CCF
:201F80008E010F5F1F4F5E01BFEFAB1ABDEFBB0A86E792E00E9427068CE090E00E9406065B
:201FA0008EE595E00E941D02181619063CF061E070E080E090E00E946901F2CF8EE595E0E9
:201FC0000E94FB01853299F0813209F480C01A8219821C821B821E821D8269E772E0CE0111
:201FE00001960E94090C85E090E00E949B010E94CA050E94CA056C01F12CE12C0E94CA0596
:202000008115E1E09E0709F46DC0F801EE0DFF1D80838FEFE81AF80AE11492E0F90674F338
:20202000DD24F12CE12C89E0CC0CDD1CEE1CFF1C8A95D1F748012601370186E5C114D10472
:20204000A1E0EA06F10420F0B1E06B1A710887E5F40121904F01F1E0F093020580930105A5
:20206000109200051092FF04852D952D990F990B0E949204C20199270E949204822D90E042
:202080000E9492048BEF95E00E94970465E070E080E090E00E94690165E070E080E090E006
:2020A0000E9469012FEFC21AD20AE20AF20AA814B90409F665E070E080E090E00E9469016D
:2020C000632D8DE00E94E50081E0382661CF60E08DE00E94E50068EE73E080E090E00E943E
:2020E0006901F9CFF801EE0DFF1D1192CF01801B910B81159240CCF3E12C92E0F92E89CFCF
:202100002F923F924F925F926F927F928F929F92AF92BF92CF92DF92EF92FF920F931F932D
:20212000CF93DF93CDB7DEB7CA1BDB0B0FB6F894DEBF0FBECDBF09942A88398848885F84DD
:202140006E847D848C849B84AA84B984C884DF80EE80FD800C811B81AA81B981CE0FD11D03
:202160000FB6F894DEBF0FBECDBFED010895A1E21A2EAA1BBB1BFD010DC0AA1FBB1FEE1FAC
:20218000FF1FA217B307E407F50720F0A21BB30BE40BF50B661F771F881F991F1A9469F7C5
:2021A00060957095809590959B01AC01BD01CF010895EE0FFF1F0590F491E02D09940F93F6
:2021C0001F93CF93DF938230910510F482E090E0E0910906F0910A0630E020E0B0E0A0E02A
:2021E000309799F42115310509F44AC0281B390B24303105D8F58A819B816115710589F1AD
:20220000FB0193838283FE0111C0408151810281138148175907E0F04817590799F41097AB
:2022200061F012960C93129713961C933296CF01DF91CF911F910F9108950093090610936B
:202240000A06F4CF2115310551F04217530738F0A901DB019A01BD01DF01F801C1CFEF01EB
:20226000F9CF90930A0680930906CDCFFE01E20FF31F819391932250310939832883D7CFB2
:202280002091070630910806232B41F4209106013091070130930806209307062091040166
:2022A000309105012115310541F42DB73EB74091080150910901241B350BE0910706F0919A
:2022C0000806E217F307A0F42E1B3F0B2817390778F0AC014E5F5F4F2417350748F04E0FDB
:2022E0005F1F5093080640930706819391939FCFF0E0E0E09CCFCF93DF930097E9F0FC01AD
:20230000329713821282A0910906B0910A06ED0130E020E01097A1F420813181820F931F6A
:2023200020910706309108062817390709F061C0F0930806E0930706DF91CF910895EA010E
:20234000CE17DF07E8F54A815B819E0141155105B1F7E901FB83EA8349915991C40FD51FDB
:20236000EC17FD0761F4808191810296840F951FE90199838883828193819B838A83F0E0EC
:20238000E0E012968D919C9113970097B9F52D913C911197CD010296820F931F2091070601
:2023A000309108062817390739F6309751F510920A0610920906B0930806A0930706BCCF14
:2023C000D383C28340815181840F951FC817D90761F44E5F5F4F88819981480F591F518353
:2023E00040838A819B81938382832115310509F0B0CFF0930A06E09309069ECFFD01DC0197
:20240000C0CF13821282D7CFB0E0A0E0EAE0F2E10C9482108C01009751F4CB010E94DF10B9
:202420008C01C801CDB7DEB7E0E10C949E10FC01E60FF71F9C0122503109E217F30708F4DE
:202440009DC0D901CD91DC911197C617D70798F0C530D10530F3CE0104978617970708F301
:20246000C61BD70B2297C193D1936D937C93CF010E947B11D6CF5B01AC1ABD0A4C018C0EA6
:202480009D1EA0910906B0910A06512C412CF12CE12C109731F58091070690910806881525
:2024A000990509F05CC04616570608F058C08091040190910501009741F48DB79EB740912D
:2024C000080150910901841B950BE817F90708F055C0F0930806E0930706F90171836083DB
:2024E000A0CF8D919C91119712966C90129713967C901397A815B90559F56C0142E0C40EA4
:20250000D11CCA14DB0420F1AC014A195B09DA011296159780F06282738251834083D901A3
:202520006D937C93E114F10471F0D7011396FC93EE93129776CF22968C0F9D1FF9019183A5
:202540008083F301EFCFF0930A06E093090669CF4816590608F42C017D01D3019ACFCB010C
:202560000E94DF107C01009749F0AE01B8010E94C112C8010E947B11870153CF10E000E02F
:2025800050CFFB01DC0102C001900D9241505040D8F70895FB01DC0101900D920020E1F7C3
:2025A0000895AEE0B0E0E7EDF2E10C948E100D891E8986E08C831A8309838FEF9FE79E837B
:2025C0008D83AE01475E5F4F6F89788DCE0101960E94F4122F813885020F131FF8011082A3
:2025E0002E96E4E00C94AA10ABE0B0E0EAEFF2E10C9480107C013B018A01FC011782168290
:20260000838181FFC8C1CE0101965C01F7019381F30193FD859193FF81913F01882309F4B8
:2026200053C1853239F493FD859193FF81913F01853229F4B70190E00E94E414E7CF912C0F
:20264000212C312CFFE1F31538F08B3211F190F4803209F1833229F137FC3CC020ED280F8F
:202660002A3050F536FE20C08AE0989E200D1124922E06C08D3291F0803371F7689430F8A0
:20268000F30193FD859193FF81913F018111DACF21C0689431F8689432F8F2CF689433F86D
:2026A000EFCF689434F8ECCFEAE02E9E200D1124222E689435F8E4CF8E3229F436FC04C181
:2026C000689436F8DDCF8C3619F4689437F8D8CF8836B1F2982F9F7D95549330E0F083360A
:2026E000A1F18337C1F1833509F063C02801F2E04F0E511CF801C080D180692D70E036FCA1
:2027000002C06FEF7FEFC6010E94CE144C01689437F882010AC00C5F1F4FFFE3F983882438
:202720008394912C6501E89437F833FE2DC0522C8114910471F5552009F468CFB70180E2C5
:2027400090E00E94E4145A94F6CFF801808189830E5F1F4FE4CF2801F2E04F0E511CF8016A
:20276000C080D180692D70E036FC02C06FEF7FEFC6010E94D9144C018201D5CFB70180E23E
:2027800090E00E94E4142A942814190409F0B0F7CECFF60137FC859137FE81916F01B7012C
:2027A00090E00E94E41451105A94F1E08F1A9108BFCF843619F0893609F077C0F80137FE3F
:2027C0006BC060817181828193810C5F1F4FF32DFF763F2E97FF09C0909580957095619575
:2027E0007F4F8F4F9F4F689437F82AE030E0A5010E941415C82ECA188C2C432C36FE0CC08A
:20280000E89440F8C91440F434FE05C032FC03C0F32DFE7E4F2E892C44FE95C0FE01EC0DAE
:20282000F11D8081803309F087C0242D297E422E842D8870582E43FC95C040FE8FC09C2C16
:20284000821418F42C0C922C981844FE91C0B70180E390E00E94E41442FE09C088E790E090
:2028600041FE02C088E590E0B7010E94E414C91408F48AC0CA94D12C9FEFC91AD90ACA0C80
:20288000DB1CF60182916F01B70190E00E94E414AC14BD04B1F74FCF60817181072E000CAA
:2028A000880B990B0E5F1F4F92CFD32CE894D4F82AE030E0853739F1232D297FD22E8F36A1
:2028C00001F148F48835A9F0F701868197812B96E2E10C949C10803749F08837A9F7D4FE6C
:2028E00002C06894D2F820E130E00DC06894D4F8F6CF34FE03C0822F8660D82E20E132E040
:2029000002C028E030E0F801D7FE0FC060817181828193810C5F1F4FA5010E941415C82E16
:20292000CA183D2CE89437F867CF6081718190E080E00E5F1F4FF0CF42FC02C0839478CFD0
:202940008394839475CF842D867809F471CFF6CFB70180E290E00E94E41483948214C0F3D0
:20296000512C73CF522C5818821408F46ECFF8CF842D867809F47BCF8BE241FE80E247FCCD
:202980008DE2B70190E071CFB70180E390E00E94E4149A946CCF8FEF9FEF99CFFC010590CC
:2029A000615070400110D8F7809590958E0F9F1F0895FC016150704001900110D8F78095C0
:2029C00090958E0F9F1F08950F931F93CF93DF93182F092FEB018B8181FD09C01FEF0FEFE8
:2029E000812F902FDF91CF911F910F91089582FF14C02E813F818C819D81281739073CF40D
:202A0000E881F981CF0101969983888310838E819F8101969F838E83E3CFE885F985812F6C
:202A20000995892BA1F3DACFFA01AA27283051F1203181F1E8946F936E7F6E5F7F4F8F4FFA
:202A40009F4FAF4FB1E03ED0B4E03CD0670F781F891F9A1FA11D680F791F8A1F911DA11DFB
:202A60006A0F711D811D911DA11D20D009F468943F912AE0269F11243019305D3193DEF61A
:202A8000CF010895462F4770405D4193B3E00FD0C9F7F6CF462F4F70405D4A3318F0495D39
:202AA00031FD4052419302D0A9F7EACFB4E0A6959795879577956795BA95C9F7009761052C
:202AC000710508959B01AC010A2E06945795479537952795BA95C9F7620F731F841F951F0F
:202AE000A01D0895F894FFCFFFFFFFFF00000B068000000000005F02BF01EC01AC021D02BA
:202B0000FB010F020000000063043604C70513048C00230414040D0A00494F3A205772691E
:202B200074696E6720616464726573732077697468206164647220646972656374696F6E65
:202B40002073657420746F20696E00496E733D002020202020202020002530327820004C3D
:202B6000494E453A253032642000494F3A2057726974696E672044617461207769746820C8
:202B80006461746120646972656374696F6E2073657420746F20696E000A0A0A0A53746104
:202BA00072747570005374617274757020646F6E650A005772697465204D656D6F727900E3
:202BC00074657374207061747465726E002D20646F6E6500454550524F4D20746F205241A6
:202BE0004D00436F7079696E6720496E737472756374696F6E200052414D20636F707920F2
:202C0000636F6D706C6574652C205245414459212121005241573D25303478204164647274
:202C20003D25303478205365713D2530356420496E733D25303278204C696E653D253032F0
:202C40007820446174613D200020253032783A20007369673D5B25645D3D256420003E3E69
:202C600000556E657870656374656420436861720000FFFFFFFFFFFFFFFFFFFFFFFFFFFFAF
:202C8000512C412CF12CE12C109731F580912A0690912B068815990509F05CC046165706B7
:202CA00008F058C08091040190910501009741F48DB79EB74091080150910901841B950B5E
:202CC000E817F90708F055C0F0932B06E0932A06F90171836083A0CF8D919C9111971296B6
:202CE0006C90129713967C901397A815B90559F56C0142E0C40ED11CCA14DB0420F1AC013E
:202D00004A195B09DA011296159780F06282738251834083D9016D937C93E114F10471F0A9
:202D2000D7011396FC93EE93129776CF22968C0F9D1FF90191838083F301EFCFF0932D068C
:202D4000E0932C0669CF4816590608F42C017D01D3019ACFCB010E94DA147C01009749F04C
:202D6000AE01B8010E94BC16C8010E947615870153CF10E000E050CFFB01DC0102C00190BC
:202D80000D9241505040D8F70895FB01DC0101900D920020E1F70895AEE0B0E0E2EDF6E1A5
:202DA0000C9489140D891E8986E08C831A8309838FEF9FE79E838D83AE01475E5F4F6F89CC
:202DC000788DCE0101960E94EF162F813885020F131FF80110822E96E4E00C94A514ABE03A
:202DE000B0E0E5EFF6E10C947B147C013B018A01FC0117821682838181FFC8C1CE01019684
:202E00005C01F7019381F30193FD859193FF81913F01882309F453C1853239F493FD859185
:202E200093FF81913F01853229F4B70190E00E94DF18E7CF912C212C312CFFE1F31538F0EC
:202E40008B3211F190F4803209F1833229F137FC3CC020ED280F2A3050F536FE20C08AE024
:202E6000989E200D1124922E06C08D3291F0803371F7689430F8F30193FD859193FF819177
:202E80003F018111DACF21C0689431F8689432F8F2CF689433F8EFCF689434F8ECCFEAE038
:202EA0002E9E200D1124222E689435F8E4CF8E3229F436FC04C1689436F8DDCF8C3619F43F
:202EC000689437F8D8CF8836B1F2982F9F7D95549330E0F08336A1F18337C1F1833509F0F8
:202EE00063C02801F2E04F0E511CF801C080D180692D70E036FC02C06FEF7FEFC6010E9451
:202F0000C9184C01689437F882010AC00C5F1F4FFFE3F98388248394912C6501E89437F843
:202F200033FE2DC0522C8114910471F5552009F468CFB70180E290E00E94DF185A94F6CFE6
:202F4000F801808189830E5F1F4FE4CF2801F2E04F0E511CF801C080D180692D70E036FC76
:202F600002C06FEF7FEFC6010E94D4184C018201D5CFB70180E290E00E94DF182A942814DD
:202F8000190409F0B0F7CECFF60137FC859137FE81916F01B70190E00E94DF1851105A94D0
:202FA000F1E08F1A9108BFCF843619F0893609F077C0F80137FE6BC060817181828193817B
:202FC0000C5F1F4FF32DFF763F2E97FF09C090958095709561957F4F8F4F9F4F689437F8BD
:202FE0002AE030E0A5010E940F19C82ECA188C2C432C36FE0CC0E89440F8C91440F434FE51
:2030000005C032FC03C0F32DFE7E4F2E892C44FE95C0FE01EC0DF11D8081803309F087C09B
:20302000242D297E422E842D8870582E43FC95C040FE8FC09C2C821418F42C0C922C9818C8
:2030400044FE91C0B70180E390E00E94DF1842FE09C088E790E041FE02C088E590E0B7013B
:203060000E94DF18C91408F48AC0CA94D12C9FEFC91AD90ACA0CDB1CF60182916F01B701E6
:2030800090E00E94DF18AC14BD04B1F74FCF60817181072E000C880B990B0E5F1F4F92CF59
:2030A000D32CE894D4F82AE030E0853739F1232D297FD22E8F3601F148F48835A9F0F70190
:2030C000868197812B96E2E10C949714803749F08837A9F7D4FE02C06894D2F820E130E048
:2030E0000DC06894D4F8F6CF34FE03C0822F8660D82E20E132E002C028E030E0F801D7FE29
:203100000FC060817181828193810C5F1F4FA5010E940F19C82ECA183D2CE89437F867CF8B
:203120006081718190E080E00E5F1F4FF0CF42FC02C0839478CF8394839475CF842D8678D3
:2031400009F471CFF6CFB70180E290E00E94DF1883948214C0F3512C73CF522C58188214A7
:2031600008F46ECFF8CF842D867809F47BCF8BE241FE80E247FC8DE2B70190E071CFB70179
:2031800080E390E00E94DF189A946CCF8FEF9FEF99CFFC010590615070400110D8F78095FE
:2031A00090958E0F9F1F0895FC016150704001900110D8F7809590958E0F9F1F08950F934F
:2031C0001F93CF93DF93182F092FEB018B8181FD09C01FEF0FEF812F902FDF91CF911F91B0
:2031E0000F91089582FF14C02E813F818C819D81281739073CF4E881F981CF01019699838E
:20320000888310838E819F8101969F838E83E3CFE885F985812F0995892BA1F3DACFFA0140
:20322000AA27283051F1203181F1E8946F936E7F6E5F7F4F8F4F9F4FAF4FB1E03ED0B4E05D
:203240003CD0670F781F891F9A1FA11D680F791F8A1F911DA11D6A0F711D811D911DA11D01
:2032600020D009F468943F912AE0269F11243019305D3193DEF6CF010895462F4770405DED
:203280004193B3E00FD0C9F7F6CF462F4F70405D4A3318F0495D31FD4052419302D0A9F761
:2032A000EACFB4E0A6959795879577956795BA95C9F700976105710508959B01AC010A2E96
:2032C00006945795479537952795BA95C9F7620F731F841F951FA01D0895F894FFCFFFFFE9
:2032E000FFFF00002E068000000000006A02CA01F701B702280206021A02000000000A08D4
:20330000DD073E08BA078E00CA07BB070D0A00494F3A2057726974696E6720616464726594
:2033200073732077697468206164647220646972656374696F6E2073657420746F20696EC9
:2033400000496E733D002020202020202020002530327820004C494E453A2530326420007A
:20336000494F3A2057726974696E6720446174612077697468206461746120646972656320
:2033800074696F6E2073657420746F20696E000A0A0A0A53746172747570005374617274E4
:2033A000757020646F6E650A005772697465204D656D6F72790074657374207061747465B6
:2033C000726E002D20646F6E6500454550524F4D20746F2052414D00436F7079696E672056
:2033E000496E737472756374696F6E200052414D20636F707920636F6D706C6574652C208B
:203400005245414459212121005241573D2530347820416464723D25303478205365713D4D
:203420002530356420496E733D25303278204C696E653D2530327820446174613D2000201D
:20344000253032783A20007369673D5B25645D3D256420003E3E00556E657870656374653F
:203460006420436861720000FFFFFFFFFFFFFFFFFFFFFFFFFFFFFFFFFFFFFFFFFFFFFFFF62
:20348000FFFFFFFFFFFFFFFFFFFFFFFFFFFFFFFFFFFFFFFFFFFFFFFFFFFFFFFFFFFFFFFF4C
:2034A000FFFFFFFFFFFFFFFFFFFFFFFFFFFFFFFFFFFFFFFFFFFFFFFFFFFFFFFFFFFFFFFF2C
:2034C000FFFFFFFFFFFFFFFFFFFFFFFFFFFFFFFFFFFFFFFFFFFFFFFFFFFFFFFFFFFFFFFF0C
:2034E000FFFFFFFFFFFFFFFFFFFFFFFFFFFFFFFFFFFFFFFFFFFFFFFFFFFFFFFFFFFFFFFFEC
:207E0000112484B714BE81FFF0D085E08093810082E08093C00088E18093C10086E08093FC
:207E2000C20080E18093C4008EE0C9D0259A86E020E33CEF91E0309385002093840096BBAD
:207E4000B09BFECF1D9AA8958150A9F7CC24DD2488248394B5E0AB2EA1E19A2EF3E0BF2E79
:207E6000A2D0813461F49FD0082FAFD0023811F0013811F484E001C083E08DD089C0823404
:207E800011F484E103C0853419F485E0A6D080C0853579F488D0E82EFF2485D0082F10E0A0
:207EA000102F00270E291F29000F111F8ED068016FC0863521F484E090D080E0DECF84364D
:207EC00009F040C070D06FD0082F6DD080E0C81680E7D80618F4F601B7BEE895C0E0D1E0ED
:207EE00062D089930C17E1F7F0E0CF16F0E7DF0618F0F601B7BEE89568D007B600FCFDCF1A
:207F0000A601A0E0B1E02C9130E011968C91119790E0982F8827822B932B1296FA010C016F
:207F200087BEE89511244E5F5F4FF1E0A038BF0751F7F601A7BEE89507B600FCFDCF97BE85
:207F4000E89526C08437B1F42ED02DD0F82E2BD03CD0F601EF2C8F010F5F1F4F84911BD0B8
:207F6000EA94F801C1F70894C11CD11CFA94CF0CD11C0EC0853739F428D08EE10CD085E9AE
:207F80000AD08FE07ACF813511F488E018D01DD080E101D065CF982F8091C00085FFFCCF0A
:207FA0009093C60008958091C00087FFFCCF8091C00084FD01C0A8958091C6000895E0E68F
:207FC000F0E098E1908380830895EDDF803219F088E0F5DFFFCF84E1DECF1F93182FE3DF47
:207FE0001150E9F7F2DF1F91089580E0E8DFEE27FF270994FFFFFFFFFFFFFFFFFFFF040425
:00000001FF
