:200000000C94BB000C94E3000C94E3000C94E3000C94E3000C94E3000C94E3000C94E300F0
:200020000C94E3000C94E3000C94E3000C94E3000C94E3000C94E3000C94E3000C94E300A8
:200040000C94F5090C94E3000C94C3090C949D090C94E3000C94E3000C94E3000C94E300C1
:200060000C943F0A0C94E3004572726F723A2000426164206F70636F6465000000000024EB
:200080000027002A0000000000250028002B00040404040404040402020202020203030362
:2000A0000303030102040810204080010204081020010204081020000000080002010000AF
:2000C00003040700000000000000004164647220427573204D6F6465206973205245414470
:2000E000004164647220427573204D6F6465206973205772697465004461746120427573AB
:20010000204D6F6465206973205265616400427573204D6F646520697320577269746500AC
:200120006461746120427573204D6F6465206973205772697465004461746120427573202B
:200140004D6F646520697320577269746500436F6D706C657465004261642053706563699F
:20016000616C204F70636F646500446174613A2000005E0B551011241FBECFEFD8E0DEBF71
:20018000CDBF27E0A6E8B5E001C01D92AB31B207E1F715E0A0E0B1E0ECE6F6E202C00590C5
:2001A0000D92A638B107D9F710E0CAEBD0E004C02197FE010E94FF10C93BD107C9F70E947B
:2001C000A20B0C9429130C94000008950895AF92BF92CF92DF92EF92FF920F931F93CF9390
:2001E000DF936C017B018B01040F151FEB015E01AE18BF08C017D10759F06991D601ED91B2
:20020000FC910190F081E02DC6010995892B79F7C501DF91CF911F910F91FF90EF90DF9056
:20022000CF90BF90AF900895FC01538D448D252F30E0842F90E0821B930B541710F0CF96F4
:20024000089501970895FC01918D828D981761F0A28DAE0FBF2FB11D5D968C91928D9F5FCD
:200260009F73928F90E008958FEF9FEF0895FC01918D828D981731F0828DE80FF11D858D75
:2002800090E008958FEF9FEF0895FC01918D228D892F90E0805C9F4F821B91098F739927F3
:2002A000089582E696E00E94450121E0892B09F420E0822F0895FC01A48DA80FB92FB11D40
:2002C000A35ABF4F2C91848D90E001968F739927848FA689B7892C93A089B1898C918370C8
:2002E00080648C93938D848D981306C00288F389E02D80818F7D80830895EF92FF920F93E5
:200300001F93CF93DF93EC0181E0888F9B8D8C8D98131AC0E889F989808185FF15C09FB789
:20032000F894EE89FF896083E889F98980818370806480839FBF81E090E0DF91CF911F91D2
:200340000F91FF90EF900895F62E0B8D10E00F5F1F4F0F731127E02E8C8D8E110CC00FB6B9
:2003600007FCFACFE889F989808185FFF5CFCE010E945B01F1CFEB8DEC0FFD2FF11DE35AFE
:20038000FF4FF0829FB7F8940B8FEA89FB8980818062CFCF0F931F93CF93DF938C01D0E044
:2003A000C0E0F801EC0FFD1F6491662341F082E696E00E947D01892B11F02196F2CFCE01E4
:2003C000DF91CF911F910F910895CF93DF93EC01888D8823B9F0AA89BB89E889F9898C91AF
:2003E00085FD03C0808186FD0DC00FB607FCF7CF8C9185FFF2CF808185FFEDCFCE010E94C5
:200400005B01E9CFDF91CF91089590E0FC01E954FF4F2491FC01ED55FF4F3491FC01E15727
:20042000FF4FE491EE23C9F0222339F0233001F1A8F4213019F1223029F1F0E0EE0FFF1F2E
:20044000EB57FF4FA591B4918FB7F894EC91611126C030953E233C938FBF08952730A9F01A
:200460002830C9F0243049F7809180008F7D03C0809180008F7780938000DFCF84B58F7760
:2004800084BDDBCF84B58F7DFBCF8091B0008F778093B000D2CF8091B0008F7DF9CF3E2B39
:2004A000DACFCF93DF9390E0FC01ED55FF4F249181579F4FFC0184918823D1F090E0880FC2
:2004C000991FFC01E558FF4FA591B491FC01EB57FF4FC591D49161110EC09FB7F8948C91DA
:2004E000E22FE0958E238C932881E223E8839FBFDF91CF9108958FB7F894EC91E22BEC93E7
:200500008FBFF6CF3FB7F89480913B0690913C06A0913D06B0913E0626B5A89B05C02F3F47
:2005200019F00196A11DB11D3FBFBA2FA92F982F8827BC01CD01620F711D811D911D42E062
:20054000660F771F881F991F4A95D1F708958F929F92AF92BF92CF92DF92EF92FF920E9483
:2005600082024B015C0184E6C82ED12CE12CF12C0E948202681979098A099B09683E73400E
:2005800081059105A8F321E0C21AD108E108F10888EE880E83E0981EA11CB11CC114D104B3
:2005A000E104F10429F7FF90EF90DF90CF90BF90AF909F908F900895DC01ED91FC9102847E
:2005C000F385E02D09950895DB01ED91FC9111970190F081E02D682FCD0109942091EC0519
:2005E000260F3327331F21323105ECF420911006FC0190E080E0243069F082E00895A09140
:20060000EC052191AC0144535A4FA40FB52FB11D2C930196861798F38091EC05680F6093FB
:20062000EC0580E0089581E008951092100681E0809312061092110661E082E10E94050284
:2006400061E083E10E940502E9EBF0E080818E7F808380818D7F808388E48093B80085E4E7
:200660008093BC000895CF93DF9391E09093CB058823B9F0C091B800D091BA008091BC0091
:200680008A7B8093BC0060E082E10E94050260E083E10E9405020E941503D093BA00C093C3
:2006A000B800DF91CF9108950895E091440680914306E81730F4F0E0EA55FA4F808190E077
:2006C00008958FEF9FEF089590914406809143062FEF3FEF981748F4E92FF0E0EA55FA4F68
:2006E000208130E09F5F90934406C90108958091430690914406891B990B0895CF92DF92FB
:20070000EF92FF920F931F93CF93DF937C01CB018A0120914F06222389F0EB016B01C40EDD
:20072000D51ECC15DD0569F06991D701ED91FC910190F081E02DC7010995F3CF642F0E9461
:20074000EE02C801DF91CF911F910F91FF90EF90DF90CF900895CF93DF931F92CDB7DEB7A9
:20076000698320914F062223F9F020914C06203258F021E030E0FC013383228390E080E083
:200780000F90DF91CF91089580914D06E82FF0E0EA57FA4F998190838F5F80934D068093E4
:2007A0004C0681E090E0ECCF61E0CE0101960E94EE02F7CFCF92DF92EF92FF920F931F9324
:2007C000CF93DF93D0914C0681E0D13208F09CC0C0914E060E9482026B017C0180911006FF
:2007E00081116CC082E08093100681E0809312068FEF80930F0610923406D0933306A6E878
:20080000B5E0E3E1F6E080E0D8138DC01092350680913506CC0FC82BC09335068091110664
:20082000813009F084C0109211060E9482026B017C01809135068093BB008091C7059091EA
:20084000C805A091C905B091CA05892B8A2B8B2BA1F00E9482020091C7051091C80520916A
:20086000C9053091CA056C197D098E099F09061717072807390708F442C08091BC0083FDDB
:20088000D8CF85EC8093BC000E9482026B017C0180911006823009F44CC080910F068F3F8C
:2008A00009F469C080910F06803209F466C080910F06803309F463C084E026C08091C705F7
:2008C0009091C805A091C905B091CA05892B8A2B8B2B09F483CF0E9482020091C705109189
:2008E000C8052091C9053091CA056C197D098E099F09061717072807390708F06FCF8091E1
:20090000C6050E94330385E010924D0610924C0610924F06DF91CF911F910F91FF90EF90C1
:20092000DF90CF9008959D9191938F5F6DCF85EEA9CF8091C7059091C805A091C905B091DA
:20094000CA05892B8A2B8B2B09F4A2CF0E9482020091C7051091C8052091C9053091CA053B
:200960006C197D098E099F09061717072807390708F08ECFC4CF80E0C7CF82E0C5CF83E04C
:20098000C3CF0F931F93CF93DF93EC018B0169817A818881806291E090934F0680934E0604
:2009A00010924D0610924C0682E10E94E40269817A81802F0E94E40269817A81812F0E9410
:2009C000E40289819A81DF91CF911F910F910C94DA031F93CF93DF93EC01862F142F69811A
:2009E0007A819881906221E020934F0690934E0610924D0610924C060E94E40269817A811B
:200A0000812F0E94E40289819A81DF91CF911F910C94DA0390E080E008958F929F92AF927C
:200A2000BF92CF92DF92EF92FF920F931F93CF93DF937B01D42F0E9482024B015C018091FA
:200A40001006811167C0CD2F81E080931006809312069FEF90930F06109234069D0F9093A5
:200A600033068093350660913506EE0CFF1C6E296093350680911106813009F083C0109232
:200A800011060E9482026B017C01809135068093BB008091C7059091C805A091C905B0910B
:200AA000CA05892B8A2B8B2BA1F00E9482028090C7059090C805A090C905B090CA056C1936
:200AC0007D098E099F0986169706A806B90608F442C08091BC0083FDD8CF85EC8093BC0079
:200AE0000E9482026B017C0180911006813009F44BC0809134068D1710F4C0913406E3E1C5
:200B0000F6E0A6EAB5E080E08C1751F191919D938F5FFACF8091C7059091C805A091C905C2
:200B2000B091CA05892B8A2B8B2B09F488CF0E9482020091C7051091C8052091C905309101
:200B4000CA05681979098A099B09061717072807390708F074CF8091C6050E943303C0E053
:200B600010924406C09343068C2FDF91CF911F910F91FF90EF90DF90CF90BF90AF909F9079
:200B80008F90089585EEAACF8091C7059091C805A091C905B091CA05892B8A2B8B2B09F4B7
:200BA000A3CF0E9482028090C7059090C805A090C905B090CA056C197D098E099F098616E1
:200BC0009706A806B90608F08FCFC5CF609154067091550690915306906221E020934F0605
:200BE00090934E0610924D0610924C0681111BC082E10E94E40280915406909155060E94B4
:200C0000DA0360915306606270E041E050E080915406909155060E940D0580915406909123
:200C200055060C94DC0283E1E4CF1F93CF93DF93EC0169817A818881806291E090934F0698
:200C400080934E0610924D0610924C0682E10E94E40289819A810E94DA036881606270E0BA
:200C600042E050E089819A810E940D0589819A810E94DC02182F89819A810E94DC02982FF1
:200C8000812FDF91CF911F910895CF93DF93EC01862F69817A819881906221E020934F0618
:200CA00090934E0610924D0610924C060E94E40289819A810E94DA036881606270E041E08C
:200CC00050E089819A810E940D0589819A81DF91CF910C94DC02FF920F931F93CF93DF93DF
:200CE000EC01162F042F862F8770F82E64E1183008F065E1CE010E94450641E050E060E0A5
:200D000070E004C0440F551F661F771FFA94D2F7002369F0482B62E1183008F063E1CE0101
:200D2000DF91CF911F910F91FF900C94E90440954823F1CFFF920F931F93CF93DF93EC01D1
:200D4000162FF42E683008F4022F602FCE010E944506177041E050E060E070E004C0440F9D
:200D6000551F661F771F1A95D2F7FF2051F0482B602FCE01DF91CF911F910F91FF900C94EC
:200D8000E90440954823F4CF0F9321E0422701E020E00E949A060F9108951F93CF93DF9371
:200DA000EC0110E00197B1F441E0612F80E596E00E94C4061F5F1031B9F7D0934606C093B0
:200DC00045066C2F8BE00E940502CE01DF91CF911F91089540E0612F80E596E00E94C40636
:200DE0001F5F1031B9F7E9CF1F93CF93DF93EC0110E00197B1F441E0612F83E596E00E94FB
:200E0000C4061F5F1031B9F7D0934806C09347066C2F8CE00E940502CE01DF91CF911F9149
:200E2000089540E0612F83E596E00E94C4061F5F1031B9F7E9CFEF92FF920F931F93CF932C
:200E40007C01C8E001E010E041E06C2F8FE596E00E94C406C7018023912341E0892B09F499
:200E600040E06C2F8FE596E00E946B06000F111FCF5FC03149F740E066E08FE596E00E942A
:200E80006B0641E066E08FE596E00E946B0640E066E08FE596E00E946B06C701CF911F9142
:200EA0000F91FF90EF90089542E050E065EB72E082E696E00C94E700CF93DF93FC014481F8
:200EC00055816081718182E696E00E94E700EC010E9454078C0F9D1FDF91CF9108958C01C7
:200EE000C62F88E690E00E94CA01C8010E945C0761E08C2F0E9405020E94A70260E08C2FF9
:200F00000E9405020E94A702F3CFCF93DF9342E050E068EB72E082E696E00E94E700EC01FC
:200F20000E9454078C0F9D1FDF91CF910895CF93DF93EC0188819981009711F00E94A11120
:200F4000198218821D821C821B821A82DF91CF910895FC0180819181009711F00C94A1117F
:200F600008950F931F93CF93DF93EC0188819981009759F02A813B812617370730F081E059
:200F8000DF91CF911F910F9108958B016F5F7F4F0E942A12009759F0998388831B830A835C
:200FA0002C813D81232B59F7FC011082E8CF80E0E7CFEF92FF920F931F93CF93DF9361151C
:200FC000710541F480E0DF91CF911F910F91FF90EF90089541155105B1F07B01EC010C81F8
:200FE0001D81040F151FB8010E94B107882351F3288139818C819D81B701820F931F0E94DF
:20100000F9121D830C8381E0DECFCF93DF93EC01FB0144815581608171810E94D907811149
:2010200003C0CE010E949707CE01DF91CF9108950F931F93CF93DF9300D0CDB7DEB701E0B0
:2010400082E696E00E944501892BA9F082E696E00E942301182F89831A8241E050E0BE01DA
:201060006F5F7F4F81E197E00E94D907133241F700934B06E5CF0F900F90DF91CF911F91A6
:201080000F9108950E94510181110C9418080895EF92FF920F931F93CF93DF93EC017B018D
:2010A0008A01BA010E94B10781110BC0CE010E949707CE01DF91CF911F910F91FF90EF9027
:2010C00008951D830C83B701888199810E94F912F0CFFC0111821082138212821582148285
:2010E000F7E08B309F0769F060910B0770910C076115710531F040910F07509110070C94BC
:2011000048080895FB0101900020E9F73197AF01461B570B0C9448080F931F93CF93DF9302
:20112000CDB7DEB761970FB6F894DEBF0FBECDBF8C01CB01F8011182108213821282158220
:2011400014824AE0BE016F5F7F4F0E949E10BE016F5F7F4FC8010E94820861960FB6F8948C
:20116000DEBF0FBECDBFDF91CF911F910F9108950F931F93CF93DF93CDB7DEB762970FB6BD
:20118000F894DEBF0FBECDBF8C01CB01F8011182108213821282158214824AE0BE016F5F49
:2011A0007F4F0E948B10BE016F5F7F4FC8010E94820862960FB6F894DEBF0FBECDBFDF9125
:2011C000CF911F910F910895FC01118210821382128215821482FB0101900020E9F73197F5
:2011E000AF01461B570B0C944808EF92FF920F931F93CF93DF93EC018B01198218821B8207
:201200001A821D821C82CB010E9482107C01BC01CE010E94B107811109C0CE01DF91CF9198
:201220001F910F91FF90EF900C949707FD82EC82B80188819981DF91CF911F910F91FF909A
:20124000EF900C947B10CF92DF92EF92FF920F931F93CF93DF9300D000D000D0CDB7DEB74F
:201260006C0186E0E82E81E0F82E10E000E0F70160817181FB018081882359F0C6010E9409
:20128000F012F5E0EF0EF11C892B79F00F5F1F4FEECF60E770E0CE0101960E94F50869E0D2
:2012A00070E0CE0101960E946F07C80126960FB6F894DEBF0FBECDBFDF91CF911F910F9174
:2012C000FF90EF90DF90CF90089585ED8093BC008091C7059091C805A091C905B091CA057A
:2012E0000796A11DB11D23E0B695A795979587952A95D1F72091BC0024FD03C01092100663
:2013000008954091C7055091C8056091C9057091CA05452B462B472B69F30097A105B105B4
:2013200041F02AE22A95F1F700C00197A109B109E1CF8091C6050C9433031F920F920FB694
:201340000F9211242F933F934F935F936F937F938F939F93AF93BF93EF93FF9382E696E061
:201360000E945B01FF91EF91BF91AF919F918F917F916F915F914F913F912F910F900FBEA3
:201380000F901F9018951F920F920FB60F9211242F938F939F93EF93FF93E0917206F091D1
:2013A00073068081E0917806F091790682FD1BC0908180917B068F5F8F7320917C0682170B
:2013C00041F0E0917B06F0E0EE59F94F958F80937B06FF91EF919F918F912F910F900FBE47
:2013E0000F901F9018958081F4CF1F920F920FB60F9211242F933F938F939F93AF93BF93C5
:201400008091370690913806A0913906B0913A063091360623E0230F2D3758F50196A11DF6
:20142000B11D209336068093370690933806A0933906B0933A0680913B0690913C06A09163
:201440003D06B0913E060196A11DB11D80933B0690933C06A0933D06B0933E06BF91AF915B
:201460009F918F913F912F910F900FBE0F901F90189526E8230F0296A11DB11DD2CF1F926F
:201480000F920FB60F9211242F933F934F935F936F937F938F939F93AF93BF93EF93FF9398
:2014A0008091B900887F803609F44AC0F0F5883209F4A7C018F5803109F49BC0B8F488232E
:2014C00009F4F9C0883009F494C0FF91EF91BF91AF919F918F917F916F915F914F913F91AD
:2014E0002F910F900FBE0F901F901895883109F488C0803251F780930F0614C0803409F420
:201500009DC040F48033B9F38833F9F680930F0685ECB0C0803509F485C0883509F496C021
:20152000883499F60E946509D0CF883909F48CC038F5883729F050F4883611F0803729F6C9
:2015400083E08093100610920E0657C0883809F47BC0803919F0803809F0B7CF80910E061C
:20156000803208F071C0E0910E0681E08E0F80930E068091BB00F0E0E251FA4F80833DC0CE
:20158000803B39F0E0F4803A09F479C0883A09F09CCF84E0809310061092ED051092EC05C9
:2015A000E0914106F091420609958091EC0581110FC081E08093EC051092CC0509C0803C4C
:2015C00009F4A6CF883C09F4A3CF883B09F07DCFE091ED0581E08E0F8093ED05F0E0E453F1
:2015E000FA4F80818093BB009091ED058091EC0529C0809135068093BB0085EC8093BC007B
:2016000064CF9091340680913306981758F5E091340681E08E0F80933406F0E0ED5EF94F9D
:201620008081E9CFE091340681E08E0F809334068091BB00F0E0ED5EF94F8083909134066E
:20164000809133069817C8F285E8D8CFE091340681E08E0F809334068091BB00F0E0ED5EE6
:20166000F94F80838091120681115CCF81E08093110684EA8093BC001092100626CF85EC53
:201680008093BC001092100680910E06803230F4E0910E06F0E0E251FA4F108260910E0660
:2016A00070E0E0913F06F09140068EEE95E0099510920E060ACF10920F0634CFE2E6F6E0E7
:2016C0001382128288EE93E0A0E0B0E084839583A683B78325E932E03183208325EC30E0CE
:2016E0003587248724EC30E03787268720EC30E0318B208B21EC30E0338B228B22EC30E0CF
:20170000358B248B26EC30E0378B268B118E128E138E148EEFEFF6E0138212828483958347
:20172000A683B78387EA92E09183808367EB72E081E197E00E94E40867EB72E08BE097E0BB
:201740000C94E408CF93DF93CDB7DEB7C754D1090FB6F894DEBF0FBECDBF789484B58260AD
:2017600084BD84B5816084BD85B5826085BD85B5816085BD80916E00816080936E0010928F
:201780008100809181008260809381008091810081608093810080918000816080938000B4
:2017A0008091B10084608093B1008091B00081608093B00080917A00846080937A0080914D
:2017C0007A00826080937A0080917A00816080937A0080917A00806880937A001092C100C4
:2017E000E0917206F091730682E08083E0916E06F0916F061082E0917006F091710687E6E8
:20180000808310927A06E0917606F091770686E08083E0917406F091750680818061808383
:20182000E0917406F0917506808188608083E0917406F0917506808180688083E091740617
:20184000F091750680818F7D808360E5E62E66E0F62ED12C7FEFA72E76E0B72EE5EE8E2EAF
:20186000E0E09E2EF6EE6F2EF0E07F2EF701D082B282A182109244061092430610924D0671
:2018800010924C060E94150390924206809241067092400660923F064FEF60E0C7010E9470
:2018A000E9044FEF61E0C7010E94E90440E064E0C7010E94E90440E065E0C7010E94E904EE
:2018C00040E06CE0C7010E94E90440E06DE0C7010E94E90410E040E0612FC7010E94C406AD
:2018E0000DE02CE041E0612FC7010E949A061F5F103189F7D394F3E0EF0EF11C26E0D212C7
:20190000B5CF60E08EE00E94510260E08FE00E94510256E0A52E51E0B52E13E0F5018080F6
:201920009180F4018081882379F1F501828186303CF58102C00111249C01205B394F790118
:20194000838138E08302600111248481C80ED11C87FDDA9441E06C2DC7010E94C4060DE0BB
:201960002CE041E06C2DC7010E949A06F401808141E08D3209F040E06C2DC7010E946B0634
:20198000F5E0AF0EB11CCACF81E090E00E94F40681E090E00E94CD066BEB72E0CE0101968E
:2019A0000E94F912CE0101960E94230905E0089FF001099FF00D1124EA5FFE4F6381660F00
:2019C000660F660F8481680F828113E08102C001112441E0805B994F0E94C40663EC72E041
:2019E000CE0101960E94F912CE0101960E942309089FF001099FF00D1124EA5FFE4F6381B4
:201A0000660F660F660F8481680F82818102C001112441E0805B994F0E94C4066DEC72E074
:201A2000CE0101960E94F912CE0101960E942309089FF001099FF00D1124EA5FFE4F638173
:201A4000660F660F660F8481680F82818102C001112441E0805B994F0E94C40665ED72E03B
:201A6000CE0101960E94F912CE0101960E942309089FF001099FF00D1124EA5FFE4F828114
:201A80008102C00111249C01205B394F7901D380DD0CDD0CDD0C8481D80E41E06D2DC90135
:201AA0000E94C40641E06D2DC7010E946B066EE073E0CE0101960E94F912CE0101960E9468
:201AC0002309089FF001099FF00D1124EA5FFE4F638138E06302B00111248481680F711D81
:201AE00087FD7A9582818102C001112440E0805B994F0E94C40661EE72E0CE0101960E94DF
:201B0000F912CE0101960E942309089FF001099FF00D1124EA5FFE4F638148E06402B0015B
:201B200011248481680F711D87FD7A9582818102C001112440E0805B994F0E94C4066AE7B7
:201B400073E0CE0101960E94F912CE0101960E942309089FF001099FF00D1124EA5FFE4FE3
:201B6000638188E06802B00111248481680F711D87FD7A9582818102C001112440E0805BB5
:201B8000994F0E94C40619E061E0812F0E94510261E0812F0E9405020E94A70260E0812F3D
:201BA0000E9405021F5F1E3079F761E08DE00E9405020E9485078E01065E1F4F35E0D32E44
:201BC00043E0C42E80914B06882309F49CC060E08DE00E9405028091490690914A069C01C6
:201BE0002F5F3F4F30934A06209349060E941B07E0901507F0901607E114F10409F08BC099
:201C0000198266EE72E0C8010E94E4088091150790911607892B09F496C0E0901107F090B2
:201C200012076A8D7B8DC7010E940F13009709F48AC0FC01EE19FF097F01C8010E94A9077B
:201C4000A701BE016F5F7F4FCE018E960E940013EEE2F0E0EC0FFD1FEE0DFF1D1082C701B1
:201C6000019621E030E02C0F3D1F820F931F0E945D107C01CE018E960E942309BC01D89E62
:201C8000F001D99EF00D1124EA5FFE4F9281993009F45DC041E0E114F10409F440E08C2D3D
:201CA000980290011124205B394FD69EF001D79EF00D1124EA5FFE4F638188E06802B001B8
:201CC00011248481680F711D87FD7A950190F081E02D80818D3231F4963024F441E0EF2828
:201CE00009F040E0C9010E946B0667EB72E081E197E00E94820810924B060E94850761E0E3
:201D00008DE00E9405020E945101882309F45ACF0E94180857CF93E1E916F10418F023E18C
:201D2000E22EF12C6091110770911207A701CE0101960E940013E1E0F0E0EC0FFD1FEE0DED
:201D4000FF1D10825ECFEE24EA94FE2C76CF8AE691E00E94CA0168EE72E0CE018E960E941E
:201D6000F012892BD9F48091470690914806019751F467E371E0C8010E94F5086CE070E097
:201D8000C8010E946F0783E596E00E941506BC01CE018E5B9F4F0E948C0851C063EF72E079
:201DA000CE018E960E94F012892B79F48091470690914806019719F460E271E0DCCF80E05B
:201DC0000E94E605682F70E0E3CF60E073E0CE018E960E94F012892B59F480914706909133
:201DE0004806019719F46EE071E0C5CF81E0E8CF6DE073E0CE018E960E94F012892BC9F5FC
:201E000063E18CE596E00E94450624961FAE1EAE249726961FAE1EAE269728961FAE1EAE33
:201E200028974AE0B80185FB882780F990E00E949E10B801CE018E5B9F4F0E948208C80144
:201E40000E946908BE016E5B7F4FC8010E9405080E945C07C8010E94A907CE018E5B9F4FDB
:201E60000E94A9078EE491E00E94CA010E9454073CCF66E173E0CE018E960E94F012892BD3
:201E800081F48091470690914806892B19F468EF70E071CFB70183E596E00E94C104B701A3
:201EA00077CF61E273E0CE018E960E94F012892B89F48091450690914606019741F461EE99
:201EC00070E0C8010E94F5086BE070E059CF80E596E05BCF6CE273E0CE018E960E94F0124A
:201EE000892B69F48091450690914606892B19F46BEC70E0E6CFB70180E596E0CECF67E371
:201F000073E0CE018E960E94F012892B59F490E080E00E94F406BC01CE018E5B9F4F0E9465
:201F2000B8088DCF67E473E0CE018E960E94F012892B19F481E090E0ECCF67E573E0CE0195
:201F40008E960E94F012892B29F490E080E00E94CD06E1CF67E673E0CE018E960E94F012BC
:201F6000892B19F481E090E0F2CF67E773E0CE018E960E94F012892B99F56AE773E0C80127
:201F80000E94F912C8010E942309D89EF001D99EF00D1124EA5FFE4F82812C2D8202C001B6
:201FA0001124805B994F238148E02402900111244481240F311D47FD3A95E22FE770FE2E84
:201FC00062E1283008F063E10E944506682F70E002C075956795FA94E2F7617070E09CCF9B
:201FE0006DE773E0CE018E960E94F012892BF9F488E0F82E40E06F2D8FE596E00E94C40662
:20200000F394F0E1FF12F6CF40E067E08FE596E00E946B068FE596E00E941506F92E41E03F
:2020200067E08FE596E00E946B066F2DCCCE6BE873E0CE018E960E94F012892B71F5C70107
:202040000E941B077C01CE018E5B9F4F0E9469084AE0B801C7010E948B10F80101900020F4
:20206000E9F73197AF01401B510BB801CE018E5B9F4F0E94D907811105C0CE018E5B9F4F73
:202080000E949707CE018E5B9F4F0E945C07CE018E5B9F4F0E94A907E5CE67E571E0C80144
:2020A0000E94F50869E070E06BCE8BE097E00E94A90781E197E00C94A907FC0188279927E6
:2020C000E89421912032E9F3293010F02E30C8F32B3241F02D3239F4689404C00E94961010
:2020E000820F911D219120532A30C0F31EF4909581959F4F0895FB01DC0105900D9200206A
:20210000E1F70895FC0105900020E9F7809590958E0F9F1F0895BB274A3031F4992322F433
:20212000BDE2909581959F4F0C949F107AE0979F902D879F802D910D11240895BB27FB011A
:202140005527AA27880F991FAA1FA41710F0A41B83955051B9F7A05DAA3308F0A95DA1932B
:20216000009779F7B111B1931192CB010C94B810DC01FC01672F71917723E1F7329704C00A
:202180007C916D9370836291AE17BF07C8F308952F923F924F925F926F927F928F929F92A1
:2021A000AF92BF92CF92DF92EF92FF920F931F93CF93DF93CDB7DEB7CA1BDB0B0FB6F8944C
:2021C000DEBF0FBECDBF09942A88398848885F846E847D848C849B84AA84B984C884DF800E
:2021E000EE80FD800C811B81AA81B981CE0FD11D0FB6F894DEBF0FBECDBFED010895EE0FCC
:20220000FF1F0590F491E02D09940F931F93CF93DF938230910510F482E090E0E091190705
:20222000F0911A0730E020E0B0E0A0E0309799F42115310509F44AC0281B390B2430310504
:20224000D8F58A819B816115710589F1FB0193838283FE0111C04081518102811381481734
:202260005907E0F04817590799F4109761F012960C93129713961C933296CF01DF91CF913A
:202280001F910F9108950093190710931A07F4CF2115310551F04217530738F0A901DB0109
:2022A0009A01BD01DF01F801C1CFEF01F9CF90931A0780931907CDCFFE01E20FF31F81937B
:2022C00091932250310939832883D7CF2091170730911807232B41F4209102013091030176
:2022E000309318072093170720910001309101012115310541F42DB73EB740910401509185
:202300000501241B350BE0911707F0911807E217F307A0F42E1B3F0B2817390778F0AC015B
:202320004E5F5F4F2417350748F04E0F5F1F5093180740931707819391939FCFF0E0E0E08F
:202340009CCFCF93DF930097E9F0FC01329713821282A0911907B0911A07ED0130E020E02E
:202360001097A1F420813181820F931F20911707309118072817390709F061C0F0931807A1
:20238000E0931707DF91CF910895EA01CE17DF07E8F54A815B819E0141155105B1F7E90128
:2023A000FB83EA8349915991C40FD51FEC17FD0761F4808191810296840F951FE901998353
:2023C0008883828193819B838A83F0E0E0E012968D919C9113970097B9F52D913C9111970B
:2023E000CD010296820F931F20911707309118072817390739F6309751F510921A07109265
:202400001907B0931807A0931707BCCFD383C28340815181840F951FC817D90761F44E5F28
:202420005F4F88819981480F591F518340838A819B81938382832115310509F0B0CFF093BC
:202440001A07E09319079ECFFD01DC01C0CF13821282D7CFB0E0A0E0E0E3F2E10C94CA1002
:202460008C01009751F4CB010E9405118C01C801CDB7DEB7E0E10C94E610FC01E60FF71FA1
:202480009C0122503109E217F30708F49DC0D901CD91DC911197C617D70798F0C530D1054C
:2024A00030F3CE0104978617970708F3C61BD70B2297C193D1936D937C93CF010E94A111F2
:2024C000D6CF5B01AC1ABD0A4C018C0E9D1EA0911907B0911A07512C412CF12CE12C10975E
:2024E00031F580911707909118078815990509F05CC04616570608F058C0809100019091FB
:202500000101009741F48DB79EB74091040150910501841B950BE817F90708F055C0F093C9
:202520001807E0931707F90171836083A0CF8D919C91119712966C90129713967C9013970C
:20254000A815B90559F56C0142E0C40ED11CCA14DB0420F1AC014A195B09DA0112961597F3
:2025600080F06282738251834083D9016D937C93E114F10471F0D7011396FC93EE9312970D
:2025800076CF22968C0F9D1FF90191838083F301EFCFF0931A07E093190769CF48165906F8
:2025A00008F42C017D01D3019ACFCB010E9405117C01009749F0AE01B8010E94E712C8019A
:2025C0000E94A111870153CF10E000E050CFFB01DC0102C001900D9241505040D8F70895B6
:2025E000FB01DC018D91019080190110D9F3990B0895FB01DC0101900D920020E1F70895FE
:20260000FB01DC014150504048F001900D920020C9F701C01D9241505040E0F70895FB0177
:2026200051915523A9F0BF01DC014D9145174111E1F759F4CD010190002049F04D9140156E
:202640004111C9F3FB014111EFCF81E090E00197089510E0CAEBD0E004C0FE010E94FF1091
:202660002196CB3BD107C9F7F894FFCF00001B0780009403020000A103020001AE03020016
:2026800002B903020003C403020004CF03020005DA03020006E503020007F003020100FB0A
:2026A00003020101060402010211040201031C04020104270402010532040201063A040210
:2026C000010742040300004A040300015204030002590403000360040300046D04030005B5
:2026E0007A0403000687040300079404030100A104030101AE04030102BB04030103C8042E
:20270000030104D004030105D804030106E004030107E804040000F404040001E10204002B
:2027200002F904040003FF0404000409050400050E05040006130504000718050401001DF2
:202740000504010128050401022F0504010336050401040E030401053D050401067A0304D1
:20276000010746050500004A0505000152050500025705050003BB02050004C30205000555
:20278000CD02050006D5020500075E05050100630505010168050501026D0505010372053D
:2027A00005010477050501057C050501068105050107E8020900001603090000F302090055
:2027C00000000309000021030900002C030900003703090000470309000057030900006728
:2027E000030900000D0309000077030900007D030900008B03090000B70200000000000058
:20280000007D01E7001401E50145012301370100000000AB037E030A0554037703640355EB
:20282000030D0A003E3E004F55542D4C454400494E2D535749544348004C4544532D4C448D
:202840000053574954434845532D5244002D494E54003A0052442D444154414255530052E0
:20286000442D444154414255532D4C0052442D444154414255532D48005242522D434F4E3B
:20288000440057522D444154414255530052442D414444524255530057522D41444452421F
:2028A000555300444154414255532D52442D4D4F444500444154414255532D57522D4D4FB4
:2028C000444500414444524255532D52442D4D4F444500414444524255532D57522D4D4FB1
:2028E00044450052442D494E00524541442D5357495443484553005345542D4C4544530001
:202900002D5245472D46554E432D5244002D5245472D46554E432D4C44005245472D5244CE
:202920002D494430005245472D52442D494431005245472D52442D494432005245472D5237
:20294000442D494433005245472D4C442D494430005245472D4C442D494431005245472D30
:202960004C442D494432005245472D4C442D494433002D5245472D52442D4C4F002D5245F9
:20298000472D4C442D4C4F002D5245472D52442D4849002D5245472D4C442D4849002D52DA
:2029A00045472D444E002D5245472D5550002D4D454D2D5244002D4D454D2D5752002D49C8
:2029C0004F2D5244002D494F2D5752002D544D502D5245472D524430002D544D502D52454C
:2029E000472D4C4430002D544D502D5245472D524431002D544D502D5245472D4C4431006F
:202A0000414444522D5245472D49443000414444522D5245472D49443100414444522D52FB
:202A200045472D49443200414444522D5245472D49443300494F414444523000494F41440B
:202A400044523100494F414444523200494F4144445233002D494F2D414444522D4C44001A
:202A60002D564D41002D494E5441002D414C552D46554E4300414C553000414C553100411E
:202A80004C553200414C5533002D41432D4C442D494E56002D41432D5244002D41432D4C28
:202AA00044002D53522D4C44002D484C2D53574150004F5554002D4255532D454E002D52CC
:202AC000554E002D52455345540042495430004249543100424954320042495433004249D6
:202AE000543400424954350042495436004249543700FFFFFFFFFFFFFFFFFFFFFFFFFFFF1D
:202B0000FFFFFFFFFFFFFFFFFFFFFFFFFFFFFFFFFFFFFFFFFFFFFFFFFFFFFFFFFFFFFFFFD5
:202B2000FFFFFFFFFFFFFFFFFFFFFFFFFFFFFFFFFFFFFFFFFFFFFFFFFFFFFFFFFFFFFFFFB5
:202B4000FFFFFFFFFFFFFFFFFFFFFFFFFFFFFFFFFFFFFFFFFFFFFFFFFFFFFFFFFFFFFFFF95
:202B6000FFFFFFFFFFFFFFFFFFFFFFFFFFFFFFFFFFFFFFFFFFFFFFFFFFFFFFFFFFFFFFFF75
:207E0000112484B714BE81FFF0D085E08093810082E08093C00088E18093C10086E08093FC
:207E2000C20080E18093C4008EE0C9D0259A86E020E33CEF91E0309385002093840096BBAD
:207E4000B09BFECF1D9AA8958150A9F7CC24DD2488248394B5E0AB2EA1E19A2EF3E0BF2E79
:207E6000A2D0813461F49FD0082FAFD0023811F0013811F484E001C083E08DD089C0823404
:207E800011F484E103C0853419F485E0A6D080C0853579F488D0E82EFF2485D0082F10E0A0
:207EA000102F00270E291F29000F111F8ED068016FC0863521F484E090D080E0DECF84364D
:207EC00009F040C070D06FD0082F6DD080E0C81680E7D80618F4F601B7BEE895C0E0D1E0ED
:207EE00062D089930C17E1F7F0E0CF16F0E7DF0618F0F601B7BEE89568D007B600FCFDCF1A
:207F0000A601A0E0B1E02C9130E011968C91119790E0982F8827822B932B1296FA010C016F
:207F200087BEE89511244E5F5F4FF1E0A038BF0751F7F601A7BEE89507B600FCFDCF97BE85
:207F4000E89526C08437B1F42ED02DD0F82E2BD03CD0F601EF2C8F010F5F1F4F84911BD0B8
:207F6000EA94F801C1F70894C11CD11CFA94CF0CD11C0EC0853739F428D08EE10CD085E9AE
:207F80000AD08FE07ACF813511F488E018D01DD080E101D065CF982F8091C00085FFFCCF0A
:207FA0009093C60008958091C00087FFFCCF8091C00084FD01C0A8958091C6000895E0E68F
:207FC000F0E098E1908380830895EDDF803219F088E0F5DFFFCF84E1DECF1F93182FE3DF47
:207FE0001150E9F7F2DF1F91089580E0E8DFEE27FF270994FFFFFFFFFFFFFFFFFFFF040425
:00000001FF
