:200000000C945D000C9485000C9485000C9485000C9485000C9485000C9485000C948500E0
:200020000C9485000C9485000C9485000C9485000C9485000C9485000C9485000C94850098
:200040000C9491050C9485000C9401060C94DB050C9485000C9485000C9485000C9485008A
:200060000C9433060C94850000000000240027002A0000000000250028002B000404040485
:200080000404040402020202020203030303030301020408102040800102040810200102F1
:2000A000040810200000000800020100000304070000000000000000520711241FBECFEFC2
:2000C000D8E0DEBFCDBF27E0AAEDB5E001C01D92A836B207E1F715E0A0E0B1E0E8E7FEE179
:2000E00002C005900D92AA3DB107D9F710E0CDE5D0E004C02197FE010E94A10ACC35D107A8
:20010000C9F70E948B070C943A0F0C94000090E0FC01EC55FF4F2491FC01E057FF4F34916A
:20012000FC01E458FF4FE491EE23C9F0222339F0233001F1A8F4213019F1223029F1F0E013
:20014000EE0FFF1FEE58FF4FA591B4918FB7F894EC91611126C030953E233C938FBF0895EE
:200160002730A9F02830C9F0243049F7809180008F7D03C0809180008F7780938000DFCFB2
:2001800084B58F7784BDDBCF84B58F7DFBCF8091B0008F778093B000D2CF8091B0008F7D2E
:2001A000F9CF3E2BDACF3FB7F8948091470690914806A0914906B0914A0626B5A89B05C022
:2001C0002F3F19F00196A11DB11D3FBFBA2FA92F982F8827BC01CD01620F711D811D911D7A
:2001E00042E0660F771F881F991F4A95D1F7089508950895AF92BF92CF92DF92EF92FF927F
:200200000F931F93CF93DF936C017B018B01040F151FEB015E01AE18BF08C017D10759F02A
:200220006991D601ED91FC910190F081E02DC6010995892B79F7C501DF91CF911F910F9164
:20024000FF90EF90DF90CF90BF90AF900895FC01538D448D252F30E0842F90E0821B930B27
:20026000541710F0CF96089501970895FC01918D828D981761F0A28DAE0FBF2FB11D5D9617
:200280008C91928D9F5F9F73928F90E008958FEF9FEF0895FC01918D828D981731F0828D32
:2002A000E80FF11D858D90E008958FEF9FEF0895FC01918D228D892F90E0805C9F4F821B18
:2002C00091098F73992708958BEB96E00E94580121E0892B09F420E0822F089580E090E06E
:2002E000892B29F00E94640181110C9400000895FC01A48DA80FB92FB11DA35ABF4F2C91F8
:20030000848D90E001968F739927848FA689B7892C93A089B1898C91837080648C93938D2C
:20032000848D981306C00288F389E02D80818F7D80830895EF92FF920F931F93CF93DF9341
:20034000EC0181E0888F9B8D8C8D98131AC0E889F989808185FF15C09FB7F894EE89FF8944
:200360006083E889F98980818370806480839FBF81E090E0DF91CF911F910F91FF90EF906F
:200380000895F62E0B8D10E00F5F1F4F0F731127E02E8C8D8E110CC00FB607FCFACFE889EA
:2003A000F989808185FFF5CFCE010E947801F1CFEB8DEC0FFD2FF11DE35AFF4FF0829FB7C8
:2003C000F8940B8FEA89FB8980818062CFCFCF93DF93EC01888D8823B9F0AA89BB89E8896D
:2003E000F9898C9185FD03C0808186FD0DC00FB607FCF7CF8C9185FFF2CF808185FFEDCF97
:20040000CE010E947801E9CFDF91CF9108952091FB05260F3327331F21323105ECF4209121
:20042000B506FC0190E080E0243069F082E00895A091FB052191AC0145525A4FA40FB52F21
:20044000B11D2C930196861798F38091FB05680F6093FB0580E0089581E008951092B5067D
:2004600081E08093940610928F0661E082E10E94870061E083E10E948700E9EBF0E08081F7
:200480008E7F808380818D7F808388E48093B80085E48093BC000895CF93DF9391E09093C8
:2004A000DA058823B9F0C091B800D091BA008091BC008A7B8093BC0060E082E10E94870078
:2004C00060E083E10E9487000E942E02D093BA00C093B800DF91CF910895CF92DF92EF9295
:2004E000FF920F931F93CF93DF93D82FC62F613208F098C00E94D3006B017C018091B5063A
:2005000081116BC081E08093B506809394069FEF90939306109292069C0F90939106809346
:20052000900680919006DD0FD82BD093900680918F06813009F078C010928F060E94D30062
:200540006B017C01809190068093BB008091B7069091B806A091B906B091BA06892B8A2B36
:200560008B2BA1F00E94D3000091B7061091B8062091B9063091BA066C197D098E099F09D7
:20058000061717072807390708F448C08091BC0083FDD8CF85EC8093BC000E94D3006B0198
:2005A0007C018091B506813009F440C0809192068C1710F4C0919206EFE6F6E0A5E9B6E03C
:2005C00080E08C1355C08C2FDF91CF911F910F91FF90EF90DF90CF9008958091B7069091C4
:2005E000B806A091B906B091BA06892B8A2B8B2B09F484CF0E94D3000091B7061091B806BB
:200600002091B9063091BA066C197D098E099F09061717072807390708F070CF8091B606F1
:200620000E944C02C0E0CFCF85EEB5CF8091B7069091B806A091B906B091BA06892B8A2B8E
:200640008B2B09F4AECF0E94D3000091B7061091B8062091B9063091BA066C197D098E09B5
:200660009F09061717072807390708F09ACFD6CF91919D938F5FA5CF8F929F92AF92BF928A
:20068000CF92DF92EF92FF920F931F93CF93DF93D0916E06D13208F0D7C0182FC0916D06DC
:2006A0000E94D3006B017C018091B50681116BC082E08093B506109394068FEF80939306BC
:2006C00010929206D0939106ADE4B6E0EFE6F6E080E0D81391C01092900680919006CC0FBE
:2006E000C82BC093900680918F06813009F088C010928F060E94D3006B017C01809190064A
:200700008093BB008091B7069091B806A091B906B091BA06892B8A2B8B2BA1F00E94D30048
:200720000091B7061091B8062091B9063091BA066C197D098E099F09061717072807390727
:2007400008F442C08091BC0083FDD8CF85EC8093BC000E94D3006B017C018091B50682308B
:2007600009F450C0809193068F3F09F46FC080919306803209F46CC080919306803309F4E9
:2007800069C084E026C08091B7069091B806A091B906B091BA06892B8A2B8B2B09F484CFD9
:2007A0000E94D3008090B7069090B806A090B906B090BA066C197D098E099F0986169706A7
:2007C000A806B90608F070CF8091B6060E944C0285E010924C0610926E0610924B06DF91E6
:2007E000CF911F910F91FF90EF90DF90CF90BF90AF909F908F9008959D9191938F5F69CF7C
:2008000085EEA5CF8091B7069091B806A091B906B091BA06892B8A2B8B2B09F49ECF0E9428
:20082000D3000091B7061091B8062091B9063091BA066C197D098E099F0906171707280793
:20084000390708F08ACFC0CF81E0C3CF80E0C1CF82E0BFCF83E0BDCF0895E091230680916E
:200860002206E81730F4F0E0EB56F94F808190E008958FEF9FEF089590912306809122069A
:200880002FEF3FEF981748F4E92FF0E0EB56F94F208130E09F5F90932306C901089580913D
:2008A000220690912306891B990B0895CF92DF92EF92FF920F931F93CF93DF937C01CB018C
:2008C0008A0120914B06222389F0EB016B01C40ED51ECC15DD0569F06991D701ED91FC91B7
:2008E0000190F081E02DC7010995F3CF642F0E940702C801DF91CF911F910F91FF90EF908C
:20090000DF90CF900895CF93DF931F92CDB7DEB7698320914B062223F9F020916E0620323B
:2009200058F021E030E0FC013383228390E080E00F90DF91CF91089580914C06E82FF0E0E0
:20094000E35BF94F998190838F5F80934C0680936E0681E090E0ECCF61E0CE0101960E9435
:200960000702F7CFCF93C42FFC018081806291E090934B0680936D0610924C0610926E06FE
:2009800088E597E00E9483046C2F88E597E00E94830481E0CF910C943C0390E080E0089595
:2009A000FC0101900020E9F73197AF01481B590BBC018BEB96E00C94FA000F931F93CF9371
:2009C000DF93EC0188819981009759F02A813B812617370730F081E0DF91CF911F910F9132
:2009E00008958B016F5F7F4F0E94CC0B009759F0998388831B830A832C813D81232B59F77E
:200A0000FC011082E8CF80E0E7CFCF93DF93EC018881806291E090934B0680936D061092C1
:200A20004C0610926E0662E188E597E00E94830481E00E943C03888162E080620E946D027E
:200A4000109223068093220688E597E00E943C04C82F88E597E00E943C0420E0382FC901DC
:200A60008C2BDF91CF910895CF93DF93EC018881806291E090934B0680936D0610924C0647
:200A800010926E0688E597E00E94830481E00E943C03888161E080620E946D0210922306E9
:200AA0008093220688E597E00E943C04DF91CF91089585ED8093BC008091B7069091B806DA
:200AC000A091B906B091BA060796A11DB11D23E0B695A795979587952A95D1F72091BC0036
:200AE00024FD03C01092B50608954091B7065091B8066091B9067091BA06452B462B472B27
:200B000069F30097A105B10541F02AE22A95F1F700C00197A109B109E1CF8091B6060C94C9
:200B20004C021F920F920FB60F9211242F933F938F939F93AF93BF93809143069091440639
:200B4000A0914506B09146063091420623E0230F2D3758F50196A11DB11D2093420680936C
:200B6000430690934406A0934506B09346068091470690914806A0914906B0914A0601963D
:200B8000A11DB11D8093470690934806A0934906B0934A06BF91AF919F918F913F912F9173
:200BA0000F900FBE0F901F90189526E8230F0296A11DB11DD2CF1F920F920FB60F921124DC
:200BC0002F933F934F935F936F937F938F939F93AF93BF93EF93FF938BEB96E00E94780196
:200BE000FF91EF91BF91AF919F918F917F916F915F914F913F912F910F900FBE0F901F90DB
:200C000018951F920F920FB60F9211242F938F939F93EF93FF93E091CB06F091CC0680817A
:200C2000E091D106F091D20682FD1BC090818091D4068F5F8F732091D506821741F0E09106
:200C4000D406F0E0E554F94F958F8093D406FF91EF919F918F912F910F900FBE0F901F907E
:200C600018958081F4CF1F920F920FB60F9211242F933F934F935F936F937F938F939F9346
:200C8000AF93BF93EF93FF938091B900887F803609F44AC0F0F5883209F4A7C018F580315D
:200CA00009F49BC0B8F4882309F4F9C0883009F494C0FF91EF91BF91AF919F918F917F91C6
:200CC0006F915F914F913F912F910F900FBE0F901F901895883109F488C0803251F7809342
:200CE000930614C0803409F49DC040F48033B9F38833F9F68093930685ECB0C0803509F4FD
:200D000085C0883509F496C0883499F60E945905D0CF883909F48CC038F5883729F050F441
:200D2000883611F0803729F683E08093B50610921D0657C0883809F47BC0803919F080389F
:200D400009F0B7CF80911D06803208F071C0E0911D0681E08E0F80931D068091BB00F0E0A1
:200D6000E350FA4F80833DC0803B39F0E0F4803A09F479C0883A09F09CCF84E08093B506F7
:200D80001092FC051092FB05E0912006F091210609958091FB0581110FC081E08093FB054B
:200DA0001092DB0509C0803C09F4A6CF883C09F4A3CF883B09F07DCFE091FC0581E08E0F0F
:200DC0008093FC05F0E0E552FA4F80818093BB009091FC058091FB0529C08091900680930A
:200DE000BB0085EC8093BC0064CF9091920680919106981758F5E091920681E08E0F80934E
:200E00009206F0E0E159F94F8081E9CFE091920681E08E0F809392068091BB00F0E0E159A7
:200E2000F94F808390919206809191069817C8F285E8D8CFE091920681E08E0F80939206D7
:200E40008091BB00F0E0E159F94F80838091940681115CCF81E080938F0684EA8093BC00C3
:200E60001092B50626CF85EC8093BC001092B50680911D06803230F4E0911D06F0E0E350E2
:200E8000FA4F108260911D0670E0E0911E06F0911F068DEF95E0099510921D060ACF109209
:200EA000930634CFEBEBF6E01382128288EE93E0A0E0B0E084839583A683B78326E932E025
:200EC0003183208325EC30E03587248724EC30E03787268720EC30E0318B208B21EC30E008
:200EE000338B228B22EC30E0358B248B26EC30E0378B268B118E128E138E148EE8E5F7E03F
:200F00001382128284839583A683B78388EA92E0918380830895CF93DF93CDB7DEB7CE567D
:200F2000D1090FB6F894DEBF0FBECDBF789484B5826084BD84B5816084BD85B5826085BD6F
:200F400085B5816085BD80916E00816080936E001092810080918100826080938100809117
:200F60008100816080938100809180008160809380008091B10084608093B1008091B0004B
:200F800081608093B00080917A00846080937A0080917A00826080937A0080917A0081604B
:200FA00080937A0080917A00806880937A001092C100E091CB06F091CC0682E08083E091D6
:200FC000C706F091C8061082E091C906F091CA0687E680831092D306E091CF06F091D0064A
:200FE00086E08083E091CD06F091CE06808180618083E091CD06F091CE0680818860808385
:20100000E091CD06F091CE06808180688083E091CD06F091CE0680818F7D808386EB92E0BF
:201020000E94D00482EC92E00E94D00484E296E0AD969FAF8EAFAD97BCE3CB2EB6E0DB2EBF
:20104000E12C412C512C32014394FC2C0D2DD601ED926D01109223061092220610924C06E0
:2010600010926E060E942E02E8EFF0E0F0932106E093200689EF90E090931F0680931E0637
:201080004FEF60E08F2D902F0E94B2044FEF61E08F2D902F0E94B204AD96AEADBFADAD975F
:2010A0001D921D92AD96BFAFAEAFAD9710E033243394183008F4312C632D8F2D902F0E9424
:2010C0003405912F97705301420104C0880C991CAA1CBB1C9A95D2F7482F4829632D8F2DA3
:2010E000902F0E94B204ADE03A2E183010F4FCE03F2E632D8F2D902F0E943405482F482981
:20110000632D8F2D902F0E94B2041F5F103179F6E394B6E0EB1299CF04E216E0ECE3EE2E05
:20112000E6E0FE2EC7010E940505F801819391938F01FFEFEF1AFF0A26E00033120791F7AE
:2011400009E010E0F02EF801E057FF4F2491F801E458FF4F8491882399F090E0880F991FDA
:20116000FC01E859FF4FA591B491FC01EE58FF4F859194918FB7F894EC91E22BEC938FBF73
:2011800061E08F2D0E9487000E94D3002B013C0164E6862E912CA12CB12C0E94D3006419F4
:2011A000750986099709683E734081059105A8F381E0881A9108A108B10898EE490E93E024
:2011C000591E611C711C81149104A104B10429F760E08F2D0E9487000F5F1F4F0E30110595
:2011E00009F0B0CF85EC92E00E94D00482EC92E00E94D0048E010F5F1F4FE0E3F6E0AD9681
:20120000FFAFEEAFAD9744E2C42E46E0D42E2F015CE3E52E56E0F52EB12CC7010E940505D3
:20122000D2018D939D932D01F601219131916F018217930711F0BB24B394FFEFEF1AFF0A28
:201240008CE396E08415950541F7B11005C080910001882309F403C1809132069091330697
:201260009C0133273F932F931F929F93809131068F93809130068F93A0EDB2E0BF93AF937A
:201280001F930F930E94990CC8010E94D0040FB6F894DEBF0FBECDBFA4E2B6E0AF96BFAF5E
:2012A000AEAFAF9720E3222E26E0322E32E0632E712C88248394912CF12CE12CF101248151
:2012C0003581AF96AEADBFADAF9714968D919C918227932788219921892B29F48091000168
:2012E000882309F487C02821392163EF72E0232B11F467EF72E0C8010E94920CC8010E9449
:20130000D004A70130E020E0B8E0EB16F10424F04850510921E030E0E7E0F1E0A080B180B3
:20132000D5018C91882309F4B2C08281082E000C990B6816790609F0A8C08381082E000C13
:20134000990B8217930709F0A0C08481082E000C990B8417950709F098C0A7961FAE1EAE14
:20136000A797A9961FAE1EAEA997AB961FAE1EAEAB97A114B10431F1F50101900020E9F7E8
:2013800031976F01CA18DB08B601CE018B599F4F0E94DD04A7962EAD3FADA79781116CC075
:2013A0002115310519F0C9010E94430BA7961FAE1EAEA797AB961FAE1EAEAB97A9961FAEC2
:2013C0001EAEA997AB964EAD5FADAB97A7966EAD7FADA7978BEB96E00E94FA00A7968EADB5
:2013E0009FADA797009711F00E94430B81EF92E00E94D004880C991CBFEFEB1AFB0AE0E1C1
:20140000EE16F10409F05ACFFFEF6F1A7F0A22E0220E311CAF968EAD9FADAF970296AF9643
:201420009FAF8EAFAF9796E06916710409F041CF1092000182EC92E00E94D004E4E2F6E0D3
:20144000AD96AEADBFADAD978D919D91AD96BFAFAEAFAD9781939193A415B50589F780E015
:2014600090E0892B09F4C9CE0E946401882309F4C4CE0E940000C1CEAB96DFAECEAEAB97B6
:20148000B501C9010E94920C9DCF359647CFA7961FAE1EAEA797A9961FAE1EAEA997AB96D2
:2014A0001FAE1EAEAB9765E170E0CE018B599F4F0E94DD04A7962EAD3FADA797882309F4AD
:2014C0006FCF85E190E0AB969FAF8EAFAB976BEF72E0D7CF2F923F924F925F926F927F9222
:2014E0008F929F92AF92BF92CF92DF92EF92FF920F931F93CF93DF93CDB7DEB7CA1BDB0B18
:201500000FB6F894DEBF0FBECDBF09942A88398848885F846E847D848C849B84AA84B98434
:20152000C884DF80EE80FD800C811B81AA81B981CE0FD11D0FB6F894DEBF0FBECDBFED0187
:201540000895EE0FFF1F0590F491E02D09940F931F93CF93DF938230910510F482E090E0C9
:20156000E0916607F091670730E020E0B0E0A0E0309799F42115310509F44AC0281B390B30
:2015800024303105D8F58A819B816115710589F1FB0193838283FE0111C04081518102816A
:2015A000138148175907E0F04817590799F4109761F012960C93129713961C933296CF01E4
:2015C000DF91CF911F910F9108950093660710936707F4CF2115310551F04217530738F0F2
:2015E000A901DB019A01BD01DF01F801C1CFEF01F9CF9093670780936607CDCFFE01E20F4E
:20160000F31F819391932250310939832883D7CF2091640730916507232B41F42091030146
:2016200030910401309365072093640720910101309102012115310541F42DB73EB74091D5
:20164000050150910601241B350BE0916407F0916507E217F307A0F42E1B3F0B28173907BB
:2016600078F0AC014E5F5F4F2417350748F04E0F5F1F5093650740936407819391939FCF3D
:20168000F0E0E0E09CCFCF93DF930097E9F0FC01329713821282A0916607B0916707ED01E1
:2016A00030E020E01097A1F420813181820F931F20916407309165072817390709F061C066
:2016C000F0936507E0936407DF91CF910895EA01CE17DF07E8F54A815B819E01411551054B
:2016E000B1F7E901FB83EA8349915991C40FD51FEC17FD0761F4808191810296840F951F94
:20170000E90199838883828193819B838A83F0E0E0E012968D919C9113970097B9F52D9146
:201720003C911197CD010296820F931F20916407309165072817390739F6309751F51092E5
:20174000670710926607B0936507A0936407BCCFD383C28340815181840F951FC817D90700
:2017600061F44E5F5F4F88819981480F591F518340838A819B81938382832115310509F089
:20178000B0CFF0936707E09366079ECFFD01DC01C0CF13821282D7CFB0E0A0E0E2EDFBE099
:2017A0000C946C0A8C01009751F4CB010E94A70A8C01C801CDB7DEB7E0E10C94880AFC012C
:2017C000E60FF71F9C0122503109E217F30708F49DC0D901CD91DC911197C617D70798F0D9
:2017E000C530D10530F3CE0104978617970708F3C61BD70B2297C193D1936D937C93CF0148
:201800000E94430BD6CF5B01AC1ABD0A4C018C0E9D1EA0916607B0916707512C412CF12C54
:20182000E12C109731F580916407909165078815990509F05CC04616570608F058C080919B
:20184000010190910201009741F48DB79EB74091050150910601841B950BE817F90708F008
:2018600055C0F0936507E0936407F90171836083A0CF8D919C91119712966C90129713965D
:201880007C901397A815B90559F56C0142E0C40ED11CCA14DB0420F1AC014A195B09DA015E
:2018A0001296159780F06282738251834083D9016D937C93E114F10471F0D7011396FC93B0
:2018C000EE93129776CF22968C0F9D1FF90191838083F301EFCFF0936707E093660769CFBE
:2018E0004816590608F42C017D01D3019ACFCB010E94A70A7C01009749F0AE01B8010E94D1
:20190000890CC8010E94430B870153CF10E000E050CFFB01DC0102C001900D9241505040F4
:20192000D8F70895FB01DC0101900D920020E1F70895AEE0B0E0EFE9FCE00C94780A0D8913
:201940001E8986E08C831A8309838FEF9FE79E838D83AE01475E5F4F6F89788DCE010196A8
:201960000E94BC0C2F813885020F131FF80110822E96E4E00C94940AABE0B0E0E2ECFCE037
:201980000C946A0A7C013B018A01FC0117821682838181FFC8C1CE0101965C01F7019381E5
:2019A000F30193FD859193FF81913F01882309F453C1853239F493FD859193FF81913F017F
:2019C000853229F4B70190E00E94AC0EE7CF912C212C312CFFE1F31538F08B3211F190F43F
:2019E000803209F1833229F137FC3CC020ED280F2A3050F536FE20C08AE0989E200D112444
:201A0000922E06C08D3291F0803371F7689430F8F30193FD859193FF81913F018111DACF08
:201A200021C0689431F8689432F8F2CF689433F8EFCF689434F8ECCFEAE02E9E200D1124F9
:201A4000222E689435F8E4CF8E3229F436FC04C1689436F8DDCF8C3619F4689437F8D8CF0F
:201A60008836B1F2982F9F7D95549330E0F08336A1F18337C1F1833509F063C02801F2E020
:201A80004F0E511CF801C080D180692D70E036FC02C06FEF7FEFC6010E94960E4C016894F6
:201AA00037F882010AC00C5F1F4FFFE3F98388248394912C6501E89437F833FE2DC0522C46
:201AC0008114910471F5552009F468CFB70180E290E00E94AC0E5A94F6CFF801808189832E
:201AE0000E5F1F4FE4CF2801F2E04F0E511CF801C080D180692D70E036FC02C06FEF7FEF63
:201B0000C6010E94A10E4C018201D5CFB70180E290E00E94AC0E2A942814190409F0B0F79C
:201B2000CECFF60137FC859137FE81916F01B70190E00E94AC0E51105A94F1E08F1A91082B
:201B4000BFCF843619F0893609F077C0F80137FE6BC060817181828193810C5F1F4FF32D09
:201B6000FF763F2E97FF09C090958095709561957F4F8F4F9F4F689437F82AE030E0A5016A
:201B80000E94DC0EC82ECA188C2C432C36FE0CC0E89440F8C91440F434FE05C032FC03C00D
:201BA000F32DFE7E4F2E892C44FE95C0FE01EC0DF11D8081803309F087C0242D297E422E5E
:201BC000842D8870582E43FC95C040FE8FC09C2C821418F42C0C922C981844FE91C0B7015A
:201BE00080E390E00E94AC0E42FE09C088E790E041FE02C088E590E0B7010E94AC0EC914FF
:201C000008F48AC0CA94D12C9FEFC91AD90ACA0CDB1CF60182916F01B70190E00E94AC0E04
:201C2000AC14BD04B1F74FCF60817181072E000C880B990B0E5F1F4F92CFD32CE894D4F88F
:201C40002AE030E0853739F1232D297FD22E8F3601F148F48835A9F0F701868197812B966B
:201C6000E2E10C94860A803749F08837A9F7D4FE02C06894D2F820E130E00DC06894D4F822
:201C8000F6CF34FE03C0822F8660D82E20E132E002C028E030E0F801D7FE0FC06081718190
:201CA000828193810C5F1F4FA5010E94DC0EC82ECA183D2CE89437F867CF6081718190E09D
:201CC00080E00E5F1F4FF0CF42FC02C0839478CF8394839475CF842D867809F471CFF6CF89
:201CE000B70180E290E00E94AC0E83948214C0F3512C73CF522C5818821408F46ECFF8CF5B
:201D0000842D867809F47BCF8BE241FE80E247FC8DE2B70190E071CFB70180E390E00E9478
:201D2000AC0E9A946CCF8FEF9FEF99CFFC010590615070400110D8F7809590958E0F9F1FA4
:201D40000895FC016150704001900110D8F7809590958E0F9F1F08950F931F93CF93DF93BD
:201D6000182F092FEB018B8181FD09C01FEF0FEF812F902FDF91CF911F910F91089582FFEC
:201D800014C02E813F818C819D81281739073CF4E881F981CF0101969983888310838E8113
:201DA0009F8101969F838E83E3CFE885F985812F0995892BA1F3DACFFA01AA27283051F1F7
:201DC000203181F1E8946F936E7F6E5F7F4F8F4F9F4FAF4FB1E03ED0B4E03CD0670F781F24
:201DE000891F9A1FA11D680F791F8A1F911DA11D6A0F711D811D911DA11D20D009F46894A6
:201E00003F912AE0269F11243019305D3193DEF6CF010895462F4770405D4193B3E00FD004
:201E2000C9F7F6CF462F4F70405D4A3318F0495D31FD4052419302D0A9F7EACFB4E0A69593
:201E40009795879577956795BA95C9F700976105710508959B01AC010A2E06945795479530
:201E600037952795BA95C9F7620F731F841F951FA01D0895F894FFCF0100006807800011BC
:201E8000030200001E030200012B03020002360302000341030200044C03020005570302AD
:201EA000000662030200076D03020100780302010183030201028E030201039903020104F7
:201EC000A403020105AF03020106B703020107BF03030000C703030001CF03030002D60391
:201EE000030003DD03030004EA03030005F703030006040403000711040301001E040301AC
:201F0000012B04030102380403010345040301044D0403010555040301065D040301076569
:201F200004040000710404000176040400027B0404000381040400048B040400059004045C
:201F4000000695040400079A040401009F04040101AA04040102B104040103B80404010454
:201F6000B505040105BF04040106C005040107C804050000CC04050001D404050002D9049B
:201F8000050003E004050004E804050005F204050006FA0405000706050501000B05050124
:201FA00001100505010215050501031A050501041F05050105240505010629050501072EEA
:201FC000050900003905090000440509000051050900005E05090000690509000074050996
:201FE000000084050900009405090000A405090000B405090000BD05090000C3050900009D
:20200000D105090000C402000000000000009A01FA002701E701580136014A01000000009B
:2020200083045604CD042C044F043C042D045365747570205374617274000D0A0053657478
:20204000757020446F6E6500416464726573733D2530347820446174612048693D253032C2
:2020600078204C6F3D253032782000283129002830290059494B4553204E4F204F50434F1B
:20208000444520464F554E44002D5245472D46554E432D5244002D5245472D46554E432D63
:2020A0004C44005245472D52442D494430005245472D52442D494431005245472D52442DAB
:2020C000494432005245472D52442D494433005245472D4C442D494430005245472D4C4493
:2020E0002D494431005245472D4C442D494432005245472D4C442D494433002D5245472DAE
:2021000052442D4C4F002D5245472D4C442D4C4F002D5245472D52442D4849002D5245473A
:202120002D4C442D4849002D5245472D444E002D5245472D5550002D4D454D2D5244002D81
:202140004D454D2D5752002D494F2D5244002D494F2D5752002D544D502D5245472D5244BB
:2021600030002D544D502D5245472D4C4430002D544D502D5245472D524431002D544D50DE
:202180002D5245472D4C443100414444522D5245472D49443000414444522D5245472D499A
:2021A000443100414444522D5245472D49443200414444522D5245472D49443300494F41AC
:2021C0004444523000494F414444523100494F414444523200494F4144445233002D494F81
:2021E0002D414444522D4C44002D564D41002D494E54002D494E5441002D414C552D465581
:202200004E4300414C553000414C553100414C553200414C5533002D41432D4C442D494EAD
:2022200056002D41432D5244002D41432D4C44002D53522D4C44002D484C2D5357415000AE
:202240004F5554002D4255532D454E002D52554E002D5245534554004F55542D4C454400E3
:20226000494E2D535749544348004C4544532D4C440053574954434845532D52440042492B
:2022800054300042495431004249543200424954330042495434004249543500424954364B
:2022A00000424954370052442D444154414255530057522D444154414255530052442D4460
:2022C0004154414255532D4C0052442D444154414255532D480052442D41444452425553C1
:2022E0000057522D4144445242555300444154414255532D52442D4D4F44450044415441D0
:202300004255532D57522D4D4F444500414444524255532D52442D4D4F4445004144445276
:202320004255532D57522D4D4F4445005242522D434F4E440052442D494E00524541442DB1
:202340005357495443484553005345542D4C45445300FFFFFFFFFFFFFFFFFFFFFFFFFFFFE0
:20236000FFFFFFFFFFFFFFFFFFFFFFFFFFFFFFFFFFFFFFFFFFFFFFFFFFFFFFFFFFFFFFFF7D
:2023800059F48091D2059091D305019719F46BE971E0C7CF81E0E8CF61E273E0CE018E968E
:2023A0000E943A16892BA9F563E186EE95E00E94AF0624961FAE1EAE249726961FAE1EAEF2
:2023C000269728961FAE1EAE28974AE0B80185FB882780F990E00E94BB13B801CE018E5B4E
:2023E0009F4F0E948209C8010E946909BE016E5B7F4FC8010E9405090E94ED07C8010E9415
:202400008C08CE018E5B9F4F0E948C0880EF91E07FCD6AE273E0CE018E960E943A16892BE8
:2024200081F48091D2059091D305892B19F46DEA71E077CFB70183EE95E00E943405B70166
:202440007DCF65E373E0CE018E960E943A16892B89F48091D4059091D505019741F463EC7E
:2024600071E0C8010E94480A6BE070E05FCF82EE95E061CF60E473E0CE018E960E943A16F4
:20248000892B69F48091D4059091D505892B19F46AED71E0E6CFB70182EE95E0CECF6BE49F
:2024A00073E0CE018E960E943A16892BE1F490E080E00E948007BC01C8010E940B0ACE0156
:2024C0008E5B9F4F0E946909B801CE018E5B9F4F0E9405090E94ED07CE018E5B9F4F0E9424
:2024E0008C08C80191CF6BE573E0CE018E960E943A16892B19F481E090E0DBCF6BE673E0B7
:20250000CE018E960E943A16892B29F490E080E00E945907D0CF6BE773E0CE018E960E945A
:202520003A16892B19F481E090E0F2CF6BE873E0CE018E960E943A16892B99F56EE873E082
:20254000C8010E944316C8010E94760A35E0389FF001399FF00D1124E65FFE4F8281082E1A
:20256000000C990B8E519A4F238148E02402900111244481240F311D47FD3A95E22FE7706A
:20258000FE2E62E1283008F063E10E94AF06682F70E002C075956795FA94E2F7617070E0AA
:2025A0008BCF61E973E0CE018E960E943A16892BF9F488E0F82E40E06F2D87EE95E00E94C8
:2025C0005007F394F0E1FF12F6CF40E067E087EE95E00E94D00687EE95E00E948506F92E6F
:2025E00041E067E087EE95E00E94D0066F2DBFCE6FE973E0CE018E960E943A16892B71F53E
:20260000C7010E94A7077C01CE018E5B9F4F0E9469094AE0B801C7010E949313F8010190EE
:202620000020E9F73197AF01401B510BB801CE018E5B9F4F0E94D908811105C0CE018E5B7A
:202640009F4F0E947A08CE018E5B9F4F0E94ED07CE018E5B9F4F0E948C08D8CE69EF71E001
:20266000C8010E94480A69E070E060CE83E097E00E948C0889E097E00C948C08FC01882706
:202680009927E89421912032E9F3293010F02E30C8F32B3241F02D3239F4689404C00E9430
:2026A000B313820F911D219120532A30C0F31EF4909581959F4F08951F93FC0199278827ED
:2026C000BC01E89411911032E9F3193010F01E30C8F31B3251F01D3249F4689406C00E9431
:2026E0009E13610F711D811D911D119110531A30B0F33EF490958095709561957F4F8F4FDA
:202700009F4F1F910895FB01DC0105900D920020E1F70895FC0105900020E9F78095909510
:202720008E0F9F1F0895BB274A3031F4992322F4BDE2909581959F4F0C94BC13592F482F18
:20274000372F262F660F771F881F991F660F771F881F991F620F731F841F951F660F771F85
:20276000881F991F08957AE0979F902D879F802D910D11240895BB27FB015527AA27880F0B
:20278000991FAA1FA41710F0A41B83955051B9F7A05DAA3308F0A95DA193009779F7B11100
:2027A000B1931192CB010C94D513DC01FC01672F71917723E1F7329704C07C916D9370836D
:2027C0006291AE17BF07C8F308952F923F924F925F926F927F928F929F92AF92BF92CF9268
:2027E000DF92EF92FF920F931F93CF93DF93CDB7DEB7CA1BDB0B0FB6F894DEBF0FBECDBF03
:2028000009942A88398848885F846E847D848C849B84AA84B984C884DF80EE80FD800C8145
:202820001B81AA81B981CE0FD11D0FB6F894DEBF0FBECDBFED010895A1E21A2EAA1BBB1B94
:20284000FD010DC0AA1FBB1FEE1FFF1FA217B307E407F50720F0A21BB30BE40BF50B661F86
:20286000771F881F991F1A9469F760957095809590959B01AC01BD01CF010895EE0FFF1F92
:202880000590F491E02D09940F931F93CF93DF938230910510F482E090E0E0911107F09124
:2028A000120730E020E0B0E0A0E0309799F42115310509F44AC0281B390B24303105D8F53A
:2028C0008A819B816115710589F1FB0193838283FE0111C04081518102811381481759071B
:2028E000E0F04817590799F4109761F012960C93129713961C933296CF01DF91CF911F9164
:202900000F9108950093110710931207F4CF2115310551F04217530738F0A901DB019A01A7
:20292000BD01DF01F801C1CFEF01F9CF9093120780931107CDCFFE01E20FF31F819391937B
:202940002250310939832883D7CF20910F0730911007232B41F42091060130910701309358
:20296000100720930F0720910401309105012115310541F42DB73EB74091080150910901BB
:20298000241B350BE0910F07F0911007E217F307A0F42E1B3F0B2817390778F0AC014E5F3E
:2029A0005F4F2417350748F04E0F5F1F5093100740930F07819391939FCFF0E0E0E09CCF5B
:2029C000CF93DF930097E9F0FC01329713821282A0911107B0911207ED0130E020E010977C
:2029E000A1F420813181820F931F20910F07309110072817390709F061C0F0931007E09367
:202A00000F07DF91CF910895EA01CE17DF07E8F54A815B819E0141155105B1F7E901FB839E
:202A2000EA8349915991C40FD51FEC17FD0761F4808191810296840F951FE901998388833F
:202A4000828193819B838A83F0E0E0E012968D919C9113970097B9F52D913C911197CD01C1
:202A60000296820F931F20910F07309110072817390739F6309751F51092120710921107AC
:202A8000B0931007A0930F07BCCFD383C28340815181840F951FC817D90761F44E5F5F4F24
:202AA00088819981480F591F518340838A819B81938382832115310509F0B0CFF0931207CB
:202AC000E09311079ECFFD01DC01C0CF13821282D7CFB0E0A0E0EFE6F5E10C94E7138C01E3
:202AE000009751F4CB010E9444148C01C801CDB7DEB7E0E10C940314FC01E60FF71F9C01A8
:202B000022503109E217F30708F49DC0D901CD91DC911197C617D70798F0C530D10530F33F
:202B2000CE0104978617970708F3C61BD70B2297C193D1936D937C93CF010E94E014D6CFA7
:202B40005B01AC1ABD0A4C018C0E9D1EA0911107B0911207512C412CF12CE12C109731F566
:202B600080910F07909110078815990509F05CC04616570608F058C08091040190910501A0
:202B8000009741F48DB79EB74091080150910901841B950BE817F90708F055C0F093100726
:202BA000E0930F07F90171836083A0CF8D919C91119712966C90129713967C901397A815F0
:202BC000B90559F56C0142E0C40ED11CCA14DB0420F1AC014A195B09DA011296159780F0BA
:202BE0006282738251834083D9016D937C93E114F10471F0D7011396FC93EE93129776CFB2
:202C000022968C0F9D1FF90191838083F301EFCFF0931207E093110769CF4816590608F4CA
:202C20002C017D01D3019ACFCB010E9444147C01009749F0AE01B8010E942616C8010E94E8
:202C4000E014870153CF10E000E050CFFB01DC0102C001900D9241505040D8F70895FC0192
:202C60008191861721F08823D9F7992708953197CF010895FB01DC018D9101908019011055
:202C8000D9F3990B0895FB01DC0101900D920020E1F70895FB01DC014150504030F08D9151
:202CA0000190801919F40020B9F7881B990B0895FB01DC014150504048F001900D920020A7
:202CC000C9F701C01D9241505040E0F70895FB0151915523A9F0BF01DC014D914517411117
:202CE000E1F759F4CD010190002049F04D9140154111C9F3FB014111EFCF81E090E0019741
:202D0000089511E0CAE3D1E004C0FE010E943E142196CB33D107C9F7F894FFCFFFFFFFFF6D
:202D2000000013078000A803020000B503020001C203020002CD03020003D803020004E32F
:202D400003020005EE03020006F90302000704040201000F040201011A04020102250402FB
:202D6000010330040201043B0402010546040201064E04020107F202030000EA0203000137
:202D800056040300025D04030003640403000471040300057E040300068B040300079804C1
:202DA000030100A504030101B204030102BF04030103CC04030104D404030105DC0403013E
:202DC00006E404030107EC04040000F804040001E502040002FD0404000303050400040DF3
:202DE00005040005120504000617050400071C0504010021050401012C05040102330504B7
:202E000001033A05040104220304010541050401068E030401074A050500004E050500019C
:202E200056050500025B05050003BF02050004C702050005D102050006D9020500076205FF
:202E400005010067050501016C05050102710505010376050501047B050501058005050166
:202E6000068505050107FC020900002A0309000007030900001403090000350309000040C4
:202E8000030900004B030900005B030900006B030900007B0309000021030900008B0309A6
:202EA000000091030900009F03090000BB0200000000000000D4023E026B023C039C027A33
:202EC000028E02000000000005D3046805A904CC04B904AA040D0A003E3E004F55542D4C2B
:202EE000454400494E2D535749544348004C4544532D4C440053574954434845532D5244A1
:202F0000002D494E54002D4D454D2D5752002D4D454D2D5244003A0052442D44415441428F
:202F200055530052442D444154414255532D4C0052442D444154414255532D480052425287
:202F40002D434F4E440057522D444154414255530052442D414444524255530057522D4167
:202F600044445242555300444154414255532D52442D4D4F444500444154414255532D57EC
:202F8000522D4D4F444500414444524255532D52442D4D4F444500414444524255532D57EA
:202FA000522D4D4F44450052442D494E00524541442D5357495443484553005345542D4CFB
:202FC000454453002D5245472D46554E432D5244002D5245472D46554E432D4C4400524536
:202FE000472D52442D494430005245472D52442D494431005245472D52442D494432005272
:2030000045472D52442D494433005245472D4C442D494430005245472D4C442D4944310069
:203020005245472D4C442D494432005245472D4C442D494433002D5245472D52442D4C4FEB
:20304000002D5245472D4C442D4C4F002D5245472D52442D4849002D5245472D4C442D4817
:2030600049002D5245472D444E002D5245472D5550002D494F2D5244002D494F2D5752003D
:203080002D544D502D5245472D524430002D544D502D5245472D4C4430002D544D502D5261
:2030A00045472D524431002D544D502D5245472D4C443100414444522D5245472D49443069
:2030C00000414444522D5245472D49443100414444522D5245472D49443200414444522D85
:2030E0005245472D49443300494F414444523000494F414444523100494F41444452320059
:20310000494F4144445233002D494F2D414444522D4C44002D564D41002D494E5441002D68
:20312000414C552D46554E4300414C553000414C553100414C553200414C5533002D414355
:203140002D4C442D494E56002D41432D5244002D41432D4C44002D53522D4C44002D484C66
:203160002D53574150004F5554002D4255532D454E002D52554E002D5245534554004249BB
:2031800054300042495431004249543200424954330042495434004249543500424954363C
:2031A000004249543700FFFFFFFFFFFFFFFFFFFFFFFFFFFFFFFFFFFFFFFFFFFFFFFFFFFF13
:2031C000FFFFFFFFFFFFFFFFFFFFFFFFFFFFFFFFFFFFFFFFFFFFFFFFFFFFFFFFFFFFFFFF0F
:2031E000FFFFFFFFFFFFFFFFFFFFFFFFFFFFFFFFFFFFFFFFFFFFFFFFFFFFFFFFFFFFFFFFEF
:20320000FFFFFFFFFFFFFFFFFFFFFFFFFFFFFFFFFFFFFFFFFFFFFFFFFFFFFFFFFFFFFFFFCE
:20322000FFFFFFFFFFFFFFFFFFFFFFFFFFFFFFFFFFFFFFFFFFFFFFFFFFFFFFFFFFFFFFFFAE
:207E0000112484B714BE81FFF0D085E08093810082E08093C00088E18093C10086E08093FC
:207E2000C20080E18093C4008EE0C9D0259A86E020E33CEF91E0309385002093840096BBAD
:207E4000B09BFECF1D9AA8958150A9F7CC24DD2488248394B5E0AB2EA1E19A2EF3E0BF2E79
:207E6000A2D0813461F49FD0082FAFD0023811F0013811F484E001C083E08DD089C0823404
:207E800011F484E103C0853419F485E0A6D080C0853579F488D0E82EFF2485D0082F10E0A0
:207EA000102F00270E291F29000F111F8ED068016FC0863521F484E090D080E0DECF84364D
:207EC00009F040C070D06FD0082F6DD080E0C81680E7D80618F4F601B7BEE895C0E0D1E0ED
:207EE00062D089930C17E1F7F0E0CF16F0E7DF0618F0F601B7BEE89568D007B600FCFDCF1A
:207F0000A601A0E0B1E02C9130E011968C91119790E0982F8827822B932B1296FA010C016F
:207F200087BEE89511244E5F5F4FF1E0A038BF0751F7F601A7BEE89507B600FCFDCF97BE85
:207F4000E89526C08437B1F42ED02DD0F82E2BD03CD0F601EF2C8F010F5F1F4F84911BD0B8
:207F6000EA94F801C1F70894C11CD11CFA94CF0CD11C0EC0853739F428D08EE10CD085E9AE
:207F80000AD08FE07ACF813511F488E018D01DD080E101D065CF982F8091C00085FFFCCF0A
:207FA0009093C60008958091C00087FFFCCF8091C00084FD01C0A8958091C6000895E0E68F
:207FC000F0E098E1908380830895EDDF803219F088E0F5DFFFCF84E1DECF1F93182FE3DF47
:207FE0001150E9F7F2DF1F91089580E0E8DFEE27FF270994FFFFFFFFFFFFFFFFFFFF040425
:00000001FF
